:020000040800F2
:10000000E081002045210008000000000000000001
:1000100000000000000000000000000000000000E0
:1000200000000000000000000000000000000000D0
:1000300000000000000000000000000000000000C0
:1000400000000000000000000000000000000000B0
:10200000E081002045210008B14A000801330008A2
:10201000AD4A0008FB2100082397000800000000DB
:1020200000000000000000000000000059830008CC
:10203000DD28000800000000D55F0008998700082F
:1020400079970008955F000815890008E762000885
:10205000FD2D000851620008E128000885290008CC
:10206000112A0008252A0008C12A00082526000890
:1020700029260008D9260008F5260008F7260008BA
:10208000F9260008FB260008D12200081F97000847
:1020900021970008FF21000811250008392B0008AE
:1020A0006B8900087F8900087D8900086D89000818
:1020B00081890008CD890008BD8A0008073300081F
:1020C000053300080B33000809330008518200086B
:1020D000698200089D900008F5920008F9920008B6
:1020E0006D290008E56200081D970008B18B000803
:1020F000B78B0008B58B0008B38B0008E7210008F8
:10210000C52E00084D820008F98A00086B8200087D
:102110003F90000841900008358B0008598B00085B
:10212000FD260008FF2600080127000803270008F5
:10213000DFF80CD000F09CF8004800472599000813
:10214000E081002000480047312100082DE9F047D8
:10215000002591469A46074688462E46402418E0B8
:1021600022464146384600F073F8B0EB090071EBA7
:102170000A010ED322465146484600F059F83F1A4C
:1021800068EB010822460021012000F051F84519B2
:102190004E41201EA4F10104E2DC284631463A46B5
:1021A0004346BDE8F08740EA01039B070AD102E0FD
:1021B00008C9121F08C0042AFAD203E011F8013B33
:1021C00000F8013B521EF9D2704710B5002200E022
:1021D000521C835C8C5CA34201D1002BF8D1805C43
:1021E000895C401A10BD7047C9430160704782681E
:1021F00022F4E0420A438260704700BFFEE7704766
:10220000FFFFFFFF30B50B460146002020220124CE
:1022100009E021FA02F59D4205D303FA02F5491BB4
:1022200004FA02F52844151EA2F10102F1DC30BDCA
:10223000202A04DB0023203A00FA02F106E000FA2B
:1022400002F39140C2F12002D0400143184670478A
:10225000202A04DB203A21FA02F000217047D04006
:10226000C2F1200301FA03F31843D1407047000084
:10227000064C074D06E0E06840F0010394E80700D3
:1022800098471034AC42F6D3FFF756FFECAC000889
:102290000CAD000830B58C1810F8013B13F00F029C
:1022A00001D110F8012B1B0906D110F8013B03E006
:1022B00010F8015B01F8015B521EF9D101E001F851
:1022C000012B5B1EFBD1A142E6D3002030BD0000F4
:1022D00010B506F043F804210348FFF785FF0421F9
:1022E0000248FFF781FF10BD002401400028014093
:1022F0000029816802D041F0010101E021F00101D3
:10230000816070470029816802D041F4807101E04A
:1023100021F48071816070470D4910B5401811D0CB
:102320004FF48064A04210D0B0F5C05F0FD10121FE
:10233000CC03204603F0A2FE2046BDE81040002159
:1023400003F09CBE01214C02F3E70121F1E710BD2F
:1023500000DCFEBF0029816802D041F4004101E0A9
:1023600021F40041816070470146896800204907D7
:1023700000D5012070470246126800200A4200D0B2
:10238000012070470844806A80B27047014689681E
:102390000020090700D501207047002A4268C9B211
:1023A00001D00A4300E08A434260704730B542687A
:1023B0000E4B0C791A400B6842EA04221343436027
:1023C00082680B4B4D791A40D1E9024342EA45023B
:1023D000234313438360C26A097C22F47002491EBE
:1023E000C9B242EA0151C16230BD0000FFFEF0FFF8
:1023F000FDF7F1FF70B5072609290AD9C568A1F1D3
:102400000A0404EB4404A640B543A3401D43C56041
:1024100007E0056901EB4104A640B543A3401D4315
:102420000561836BC3F30154121B921C02EB820201
:102430001F249440A34391400B43836370BD826B80
:10244000491E22F4401242EA01518163704770B57F
:10245000072609290AD9C568A1F10A0404EB440436
:10246000A640B543A3401D43C56007E0056901EBE5
:102470004104A640B543A3401D4305611F23072A1D
:1024800009D2446B521E02EB820293409C4391405E
:102490000C43446370BD0D2A09D2046BD21F02EBBA
:1024A000820293409C4391400C43046370BDC46A14
:1024B0000D3A02EB820293409C4391400C43C4626C
:1024C00070BD816841F00801816070470029816812
:1024D00002D041F4A00101E021F4A0018160704725
:1024E0000029816802D041F4021101E021F40211B7
:1024F00081607047816841F004018160704700216C
:102500000160017141718160C160012101747047F6
:102510007047000010B50022044B03E050F8224041
:102520001C60521C8A42F9D3186810BD003002406A
:1025300001490120886070470030024030B50246F2
:102540004FF6FF7013E0031243EA002412F8015B18
:102550006C40A0B2C0F303135840C3B21B1243EA4D
:1025600000231B01C4B283EA4413434098B20B001A
:10257000A1F10101E7D130BD30B503460C4621463B
:10258000184604F099FA05460849086800EBD0712E
:10259000B5EB610F02DD054800682D1AA80203495A
:1025A000096890FBF1F5284630BD0000B00100201D
:1025B000F0B518480068184F3F88A0EB070117488E
:1025C0000068174F3F88A0EB0702C1F10000A0EBA5
:1025D0000203002901DB084600E048420446002AC5
:1025E00001DB104600E050420546002B01DB184697
:1025F00000E058420646AC4205DDB44201DD20460B
:10260000F0BD3046FCE7B54201DD2846F8E730462C
:10261000F6E700003C240140600200203C28014015
:10262000620200207047000070B50022012123489B
:1026300005F030FE00220221204805F02BFE00218B
:102640001E4805F01DFE00211D4800F065F8002120
:102650001B48143000F060F8202000F053F80A21E5
:102660001848FFF76BFF05461648408980B2A8421C
:1026700014D1002407E0134830F81400124921F85F
:102680001400601C84B2052CF5DB01200F490860A2
:102690000F480068401C0E49086008E04FF0FF300A
:1026A0000A4908600B480068401C0A490860062077
:1026B00003491C390862486370BD000000300140C6
:1026C0001C000240CC070020C007002010010020A1
:1026D000080100200C01002010B50022022104484E
:1026E00005F0D8FD4FF4007000F00CF810BD0000AC
:1026F000003001407047704770477047704770471F
:10270000704770470349C20002D5C1F804047047FE
:1027100048607047000002400029016802D041F083
:10272000010101E021F00101016070470268002110
:1027300022F001020260016041608160C160304BA3
:102740002F49C21A8039984245D018DC2D4BA0EB96
:102750000302984237D00ADC2B4A80182BD0142869
:102760002DD0282826D1486840F4706036E0142A1D
:102770002DD0282A1ED1486840F470002EE0B2F512
:102780006C7F32D00ADCB2F5627F29D0B2F5677F68
:1027900010D1D1F8040440F0F00009E0B2F5717FE7
:1027A00028D0B2F5767F05D1D1F8040440F470202A
:1027B000C1F804047047486840F00F000EE0486814
:1027C00040F0F0000AE0486840F4704006E04868D5
:1027D00040F4702002E0486840F070604860704744
:1027E000D1F8040440F00F00E2E7D1F8040440F40B
:1027F0007060DDE7D1F8040440F47040D8E70000D1
:102800008000024044000240F8FFFDBF002A026839
:1028100001D00A4300E08A430260704770B5026845
:1028200047F6F0739A430E6A8B680C693343D1E91B
:1028300005562C432343CC6933432343D1E9095440
:102840002B43234313430360CA6842600A688260D3
:102850004968C16070BD70B505460C46FFF768FE5B
:1028600014F0030F04D0A1082846FFF753FE70BDF3
:102870000120C0EB94012846FFF74CFEF7E700006B
:1028800010B51048A0F18001401A48600E480F4969
:1028900008600BE00D48006840690C490968096848
:1028A00008600A480068183008490860074800684E
:1028B00007498842EED307A102481C3806F05EFFA4
:1028C00010BD0000B07D0020D49E000884020020CE
:1028D00054A300085132303100000000704700005E
:1028E00010B5012000F0F6F90021184806F075F93E
:1028F00017480068012817D116480088164909684A
:1029000008441649D1F8081801F00101144A42F8A8
:1029100021004FF000000F4908800F4908604FF078
:102920000100104908600CE00F480D49086048603C
:10293000002008490880084908604FF00100044958
:1029400008600121014806F048F910BD0008004068
:10295000FC01002024080040E401002000000140A8
:10296000EC0100200402002040420F0010B54FF49B
:10297000805000F0AFF901200149086010BD00004F
:102980000001002010B5022000F0A4F90021184831
:1029900006F023F917480068012817D11648008867
:1029A0001649096808441649D1F80818C1F34001CE
:1029B000144A42F821004FF000000F4908800F49E7
:1029C00008604FF00200104908600CE00F480D4904
:1029D00008604860002008490880084908604FF0F6
:1029E0000100044908600121014806F0F6F810BD15
:1029F000000C004000020020240C0040E8010020F0
:102A000000000140F40100200402002040420F00B9
:102A100010B5042000F064F910B1042000F05AF958
:102A200010BD000010B5082000F05AF9002831D080
:102A3000082000F04FF91848006800B110BD0020D0
:102A40004FF08041888415480068A0B94FF4FA60BF
:102A5000134908801349A1F8380C134908804FF036
:102A60000101124806F0B9F80121104806F0C0F83B
:102A700001200A4908600E48006828B90D4800681E
:102A800010B900200C4908800C48006810B90120DA
:102A90000A490860D2E700001C0200204C02002016
:102AA000342C0140002001403C2C0140002C01400E
:102AB0002C020020340200202404004020020020C8
:102AC00010B5102000F00CF960B3102000F002F9EE
:102AD00000211548FFF720FE002113481430FFF7AE
:102AE0001BFE062010491C39086210488862062027
:102AF00048630F48C86301210B48FFF70DFE012111
:102B000009481430FFF708FE01220221094805F0A8
:102B1000C1FB01221146074805F0BCFB0121054815
:102B200005F0AEFB10BD00001C000240CC070020E9
:102B3000B60700200030014010B500244FF480702B
:102B400000F0CEF8002820D04FF4807000F0C2F8DA
:102B50005848008810F0100F55D04FF48071564837
:102B600000F0C4FA0028EED05448006870B9012083
:102B700052490860002052490860091D0860514907
:102B800008804FF42F605049086091E04D4800885C
:102B9000B0F5004F06DD4B4800884FF6FF71A1EB02
:102BA000000401E04748048848480068012819D11A
:102BB0004348001D006820444149091D0860081F62
:102BC0000068401C091F086008460068032809D1F6
:102BD000081D0068032190FBF1F03D4908600020CA
:102BE0003A4908603A49086800EBD071642202EB68
:102BF0006101A1425CDA0020324908804FF42F6065
:102C00003149086054E04FF480712B4800F06EFAAF
:102C100000284DD12948006870B901202749086073
:102C2000002027490860091D0860264908804FF4E4
:102C30002F60254908603BE022480088B0F5004F2E
:102C400006DD204800884FF6FF71A1EB000401E08B
:102C50001C4804881D480068012819D11848001D27
:102C6000006820441649091D0860081F0068401CC0
:102C7000091F086008460068032809D1081D00687C
:102C8000032190FBF1F01249086000200F49086011
:102C90000F49086800EBD071642202EB6101A14288
:102CA00006DA0020074908804FF42F6006490860C3
:102CB00010BD000000040040001001403802002058
:102CC0003400002024040040C4010020340200200D
:102CD000B001002001490860704700001404014061
:102CE000054B01461A6800205B690A400B4202D07E
:102CF000002A00D0012070470004014010B58379FC
:102D000020490268A3B3D1F800349343C1F80034DA
:102D1000D1F8042403689A43C1F8042402790468B2
:102D20000A44D2F800342343C2F80034D1F808240E
:102D300003689A43C1F80824D1F80C2403689A4325
:102D4000C1F80C244279102A0AD101F581610A6880
:102D500003681A430A604A68006802434A6010BD6B
:102D60001144D1F8002400680243C1F8002410BDCA
:102D7000FFE700790844D0F800149143C0F800142C
:102D8000F5E70000000001400149C86070470000FD
:102D90000020024070B5054640F6FF76304600F050
:102DA0007DF8042813D10A4C206940F0020020610C
:102DB0006561206940F040002061304600F06EF807
:102DC000012804D0216941F6FD721140216170BDD6
:102DD0000020024008490420CA68D20701D001201F
:102DE0007047CA68520701D502207047C968C906F2
:102DF000FBD5032070470000002002407047000010
:102E00000248016941F080010161704700200240E1
:102E100004490A6822F010020A600A6802430A6044
:102E20007047000000200240F0B505460E460F2016
:102E300000F034F8042816D10B4C206940F0010052
:102E400020612E800F2000F029F841F6FE7704283B
:102E500004D1300C68800F2000F020F8012802D047
:102E6000216939402161F0BD0020024004490A680F
:102E700002F038020A600A6802430A6070470000E4
:102E80000020024003480249416003494160704705
:102E90002301674500200240AB89EFCD00B5034612
:102EA000FFF798FF05E0FF20401EFDD1FFF792FFDE
:102EB0005B1E012802D1002BF5D101E0002B00D1CF
:102EC000052000BD7047000010B50D48A0F180013D
:102ED000401A486008464168001DFFF7BCFC0849DD
:102EE00080390860074A84210548803800F017F8C7
:102EF0000446012C01D1002010BD4FF0FF30FBE74C
:102F0000B07D002000F8070810B503E010F8013B81
:102F100001F8013B1300A2F10102F7D110BD2DE928
:102F2000FC5F04460D4616460027A04601964FF06A
:102F3000010B0420009015F0030F0AD0A80804EB41
:102F4000800000F10409A80806EB800000F1040AE3
:102F500005E0A80804EB8009A80806EB800AFFF743
:102F600091FF3520FFF710FF07E00198FFF712FFF0
:102F70000090019800F5006001900198504502D240
:102F800000980428F1D00098042822D1019607E087
:102F900002CC019A131D10460193FFF745FF0090E4
:102FA0004C4502D200980428F2D00098042810D191
:102FB000019609E058F8041B019804C80190914259
:102FC00002D04FF0000B01E0C845F3D300BF4FFA29
:102FD0008BF7FFF715FF3846BDE8FC9F10B58A0751
:102FE00021F003040649120F21440F238C689340FB
:102FF0009C438C608B68904003438B6010BD000045
:1030000000000140F0B5CB780022DC0603F00F038E
:1030100001D58C7823430C880F2714F0FF0F4FF055
:10302000010C1CD0D0F800500E880CFA02F4264097
:10303000A64210D1960007FA06FE25EA0E0E03FA04
:1030400006F5CE7845EA0E05282E00D14461CE78EB
:10305000482E00D10461521C082AE5D305600A8875
:10306000FF2A1ED94568002202F108060CFA06F470
:103070000E882640A64210D1960007FA06FE25EAE1
:103080000E0E03FA06F5CE7845EA0E05282E00D17D
:103090004461CE78482E00D10461521C082AE3D343
:1030A0004560F0BDF0B5104D6B68440D260184B24B
:1030B000C0F30157B440C0F30342032F06D1686840
:1030C00023F0706220F07060686008E0C00203D5F1
:1030D00003209040834300E0A34343F0706201B1BA
:1030E00022436A60F0BD0000000001400246926881
:1030F00000200A4200D0012070474FF6FF71018086
:10310000022181700421C170704700001CB54FF48A
:10311000A06001F023FD25208DF8000003208DF82C
:10312000010002208DF8020001208DF8030068469E
:1031300001F0DAFC012144F2080002F093FF0121C2
:103140000420FFF7AFFF8020ADF8040048208DF881
:10315000070001A90848FFF755FF4020ADF804001B
:1031600003208DF8060018208DF8070001A90248F9
:10317000FFF748FF1CBD0000000C01401CB54FF4D8
:10318000A06001F0EBFC27208DF8000003208DF8F3
:1031900001008DF8020001208DF80300684601F05F
:1031A000A3FC01210E4802F045FF4FF40060ADF88A
:1031B000040004208DF8070001A90A48FFF722FF48
:1031C0004FF48060ADF8040003208DF8060018204D
:1031D0008DF8070001A90348FFF714FF1CBD00008C
:1031E00008000400000C01400AB101617047416110
:1031F00070470246002003E04B1ED35C5840491E36
:103200000029F9D17047000000201B490968B02946
:1032100028D00CDC47291DD004DC442916D04629CF
:1032200028D115E04A2917D0AF2923D118E0DF298A
:103230000AD004DCC8291BD0DE291BD10EE0E62908
:1032400012D0E72916D111E0302013E0522011E00E
:1032500056200FE058200DE055200BE0702009E0CB
:10326000802007E0812005E0822003E0832001E048
:10327000842000BF00BF70475C01002070B50024AF
:1032800015480068082801D144F00104124800687C
:10329000072801D144F0020410480068012801D138
:1032A00044F004040C480068032801D144F00804E9
:1032B0000B4800683C2190FBF1F52946094800685D
:1032C00004F042FF08B144F010040748006808B950
:1032D00044F06004204670BD640000201802002005
:1032E000B0010020240100209801002000200349A3
:1032F0000968012901D140F0020070474C0200200A
:1033000000BFFEE7704770477047704770B50125F2
:103310005048006830B1012821D002285FD003282E
:103320001CD187E001204B4908604B48806800F4BD
:103330008070091D08600846006840B147494C6B21
:1033400004EBD4714910484204F0FEFC06E0434807
:10335000446B04EBD471481004F0F6FC77E040486D
:103360000068022800D172E03B48806800F4807059
:103370003849091D096888421DD002203549086076
:103380000A20384908603348083001680068401C4A
:10339000304A0832106002290DDD3348006810B948
:1033A000B0203149086000202A490860002501F05A
:1033B000C7FC01F0E9FC2D48006801280ED12C481B
:1033C000006820B10021084604F0E8FD03E0012177
:1033D000002004F0E3FD03201E49086037E0214887
:1033E000006898B92348006880B90020194908602E
:1033F0001F48006828B100211F48006804F0CEFD76
:1034000004E001211C48006804F0C8FD174800686A
:1034100001280ED11648006820B10021084604F0AA
:10342000BDFD03E00121002004F0B8FD032009499F
:1034300008600CE00A480068072807D001F080FC0B
:1034400001F0A2FC002003490860002500BF00BF76
:10345000284670BDD000002000100140307D0020C3
:1034600064000020780100205C0100204C02002054
:10347000180200201C020020AC0100200146044874
:10348000006848434FF4B47290FBF2F070470000BC
:10349000B001002001464FF4B4704843024A12685C
:1034A00090FBF2F070470000B001002010B900213D
:1034B000054A11600549C9680902034A5160034978
:1034C00009699160704700009C070020307D002052
:1034D00000200549086005484069C8214843024961
:1034E0004860022088607047A8070020307D0020D7
:1034F00000B516480068022802D0042812D100E066
:1035000000BF00234FF4C8724FF46151104802F01D
:10351000DFFF00234FF4C8724FF461510D4802F0F1
:10352000D7FF10E000234FF4C87243F2D4010848DB
:1035300002F0CEFF00234FF4C87243F2D4010548D5
:1035400002F0C6FF00BF00BF00BD00002C0100203C
:10355000B47D0020C87D002010B588B0012148024C
:1035600002F080FD0121880202F07CFD4FF4004052
:1035700002F04AFD0620ADF81C0000208DF81F0067
:1035800007A96948FFF73EFD6848FEF7C5FE684891
:10359000FEF7C2FE01216548FEF7AAFE012164483C
:1035A000FEF7A6FE02A8FEF7AAFF4FF4A0200290A5
:1035B00001208DF80C0000208DF80D004FF46020E4
:1035C00004900020059001208DF8180002A95748AA
:1035D000FEF7ECFE02A8FEF792FF01208DF80C002A
:1035E00000208DF80D004FF460200490002005901D
:1035F00001208DF8180002A94D48FEF7D7FE4B4870
:10360000FEF778FF4A48FEF775FF00BF4748FEF710
:10361000ABFE04464648FEF7A7FE0442F6D1012160
:103620004248FEF70CFF01214148FEF708FF002247
:103630004FF490613D48FEF7B0FE00224FF49061D8
:103640003B48FEF7AAFE00203A4908803A49088024
:103650004FF4E0413548FEF7CAFD01213348FEF73B
:1036600079FE4FF4E0413248FEF7C1FD01213048B8
:10367000FEF770FE01231A460B212C48FEF7BAFE16
:1036800001231A460C212A48FEF7B4FE04212748DC
:10369000FEF7AAFD04212648FEF7A6FD01212348D6
:1036A000FEF71EFF01212248FEF71AFF00BF04218A
:1036B0001E48FEF760FE28B904211D48FEF75BFE98
:1036C0000028F4D014211948FEF75CFE194908803F
:1036D00014211748FEF756FE1749088000211348A9
:1036E000FEF785FD00211248FEF781FD01224FF40F
:1036F00090610E48FEF751FE01224FF490610C4894
:10370000FEF74BFE12208DF8040002208DF8050014
:1037100000208DF8060001208DF8070001A801F0B7
:10372000E3F908B010BD0000001001400024014082
:1037300000280140600200206202002000B591B024
:103740000121022002F06AFC0121C80302F08AFC78
:103750004FF4004002F058FC0120ADF814000020A6
:103760008DF8170005A93348FFF74CFC3248FEF7E7
:10377000DDFF324806903248079000200890012073
:10378000099000200A900B904FF480700C908000FC
:103790000D9020200E9000020F900020109006A99E
:1037A0002548FFF73BF801212348FEF7B5FF00202D
:1037B000009001208DF804008DF805004FF4602082
:1037C00002900020039001208DF8100069461B48EC
:1037D0004C38FEF7EBFD052301220A2117484C382F
:1037E000FEF735FE012115484C38FEF78BFD01210F
:1037F00012484C38FEF77CFD10484C38FEF761FE4D
:1038000000BF0E484C38FEF7C1FD0028F9D10B4827
:103810004C38FEF76FFE00BF08484C38FEF7A4FD99
:103820000028F9D1012105484C38FEF74FFE11B0B0
:1038300000BD000000100140580402404C3C014013
:103840007E0200200EB500210846FFF7C7FB0120CD
:10385000FFF740FA0120009000208DF804001020AE
:103860008DF8050001208DF806006846FFF746FA3E
:103870004FF4A06001F072F906208DF808000020D6
:103880008DF8090001208DF80A008DF80B0002A8C0
:1038900001F02AF90EBD00001FB54FF48050ADF8BD
:1038A000000004208DF8030069461648FFF7AAFBC4
:1038B0000C210120FFF792FB4FF480500190002073
:1038C0008DF808000C208DF8090001208DF80A0001
:1038D00001A8FFF713FA4FF4A06001F03FF9282088
:1038E0008DF80C0002208DF80D0001208DF80E00DF
:1038F0008DF80F0003A801F0F7F84FF48050FFF7A0
:10390000E9F91FBD000C01400EB501210020FFF7B1
:1039100065FB0220FFF7DEF90220009000208DF801
:10392000040010208DF8050001208DF8060068467F
:10393000FFF7E4F94FF4A06001F010F907208DF8CB
:10394000080000208DF8090001208DF80A008DF88C
:103950000B0002A801F0C8F80EBD0EB5032100202F
:10396000FFF73CFB0820FFF7B5F908200090002086
:103970008DF804000C208DF8050001208DF806005C
:103980006846FFF7BBF94FF4A06001F0E7F80920A3
:103990008DF8080001208DF809008DF80A008DF8D7
:1039A0000B0002A801F0A0F80EBD00001FB510200A
:1039B000ADF8000004208DF8030069461548FFF7B4
:1039C00021FB04210020FFF709FB102001900020BB
:1039D0008DF808000C208DF8090001208DF80A00F0
:1039E00001A8FFF78BF94FF4A06001F0B7F80A20A7
:1039F0008DF80C0001208DF80D0003208DF80E00CD
:103A000001208DF80F0003A801F06EF81020FFF7D9
:103A100061F91FBD000801400EB508210220FFF723
:103A2000DDFA4FF48070FFF755F94FF48070009085
:103A300000208DF8040010208DF8050001208DF87D
:103A400006006846FFF75AF94FF4A06001F086F8C7
:103A500017208DF8080002208DF809008DF80A0063
:103A600001208DF80B0002A801F03EF80EBD000009
:103A700038B542F210740121102002F0F3FA6846C2
:103A8000FFF73BFB1020ADF800008DF8030003208A
:103A90008DF8020069460748FFF7B4FA0548C06888
:103AA00040F010000349C86000BF2000A4F10104E9
:103AB000FBD138BD0010014008B50121042002F0FF
:103AC000D1FA6846FFF719FB4FF40060ADF800002B
:103AD00010208DF8030003208DF80200694602488B
:103AE000FFF790FA08BD00000008014008B5012169
:103AF000042002F0B7FA6846FFF7FFFA4FF480504F
:103B0000ADF8000010208DF8030003208DF80200AE
:103B100069460248FFF776FA08BD00000008014038
:103B200008B50121042002F09DFA6846FFF7E5FA86
:103B30000420ADF800008DF8030003208DF802008A
:103B400069460248FFF75EFA08BD00000008014020
:103B500008B50121102002F085FA6846FFF7CDFA7A
:103B60004FF40050ADF8000010208DF80300032042
:103B70008DF8020069460248FFF744FA08BD0000CC
:103B80000010014008B50121102002F06BFA6846D0
:103B9000FFF7B3FA4FF48040ADF8000004208DF831
:103BA000030003208DF8020069460248FFF72AFA55
:103BB00008BD00000010014008B50121102002F0EE
:103BC00051FA6846FFF799FA4FF40040ADF800004B
:103BD00010208DF8030003208DF80200694602488A
:103BE000FFF710FA08BD00000010014008B50121E0
:103BF000102002F037FA6846FFF77FFA2020ADF870
:103C0000000010208DF8030003208DF802006946A3
:103C10000448FFF7F7F90348C06840F02000014965
:103C2000C86008BD0010014008B50121102002F055
:103C300019FA6846FFF761FA4FF48070ADF800009A
:103C400004208DF8030003208DF802006946024825
:103C5000FFF7D8F908BD00000010014000B593B08F
:103C600000214FF4A06002F0D9F9012141F20500D2
:103C700002F0F8F90121084602F0D0F9B020ADF8C1
:103C8000480004208DF84B0012A95648FFF7BAF9F6
:103C90004020ADF8480018208DF84B0003208DF827
:103CA0004A0012A94F48FFF7ADF94F4804F0FAFA5D
:103CB0000020ADF83000ADF832004FF40060ADF8F0
:103CC00034000020ADF836000120ADF838000020A7
:103CD000ADF83A002020ADF83C008020ADF83E0061
:103CE0000720ADF840000CA93F4804F019FB002163
:103CF0003D4804F0BBFA4FF4A06000F02FFF0C2009
:103D00008DF8440001208DF8450000208DF8460014
:103D100001208DF8470011A800F0E6FE0D208DF877
:103D2000440001208DF8450003208DF84600012055
:103D30008DF8470011A800F0D7FE2C48FEF7F6FCDE
:103D400029480C3001902A48029000200390062058
:103D5000049000200590802006904000079080008D
:103D60000890002009904FF400500A9000200B901A
:103D700001A91E48FEF752FD1C481430FEF7D6FC80
:103D800019480C3001901B4802901020039000202D
:103D90000A9001A915481430FEF740FD01220221C6
:103DA000114804F077FA012211460F4804F072FA24
:103DB000012202210D48FEF729FD012202210B48B4
:103DC0001430FEF723FD00210848FEF7A5FC002172
:103DD00006481430FEF7A0FC0021034804F050FA16
:103DE00013B000BD00080140003001401C0002403B
:103DF000CC070020B607002010B5042004F05CFDBD
:103E0000074804F083FD012004F062FD0022032135
:103E1000044800F0B7FE012004F06CFD10BD000066
:103E2000401901009AC3020000B589B001210D209C
:103E300002F018F90121C80202F014F9394804F01F
:103E4000E3FE06A805F0F2F80020ADF818002020E7
:103E5000ADF81A004FF47A60ADF81C004FF4807092
:103E6000ADF81E0001208DF8200006A92D4805F0B0
:103E7000BFF802A805F080F86020ADF80800012026
:103E8000ADF80A000420ADF80C0040F20550ADF882
:103E90000E000020ADF81000ADF81200ADF81400CF
:103EA000ADF8160002A91F4804F08CFF40F205503F
:103EB000ADF80E0002A91B4804F0B4FF40F2055013
:103EC000ADF80E0002A9174804F0EAFF01A8FFF7B9
:103ED00014F94FF4E060ADF8040018208DF80700E5
:103EE00003208DF8060001A90F48FFF78BF801A801
:103EF000FFF703F94FF46040ADF8040018208DF887
:103F0000070003208DF8060001A90848FFF77AF89A
:103F10002021044805F03AF80121024804F05DFE32
:103F200009B000BD002C014000080140000C014018
:103F300000B58DB00121084602F07CF80121042073
:103F400002F090F80CA8FFF7D8F80320ADF8300085
:103F500004208DF833000CA93548FFF753F84FF4CF
:103F6000A06000F0FBFD1C208DF82C0001208DF8D6
:103F70002D0002208DF82E0001208DF82F000BA8B7
:103F800000F0B2FD4FF0804004F03EFE05A805F0C1
:103F90004DF80020ADF81400264800688000401E4F
:103FA00080B2ADF818000020ADF81A00ADF8160088
:103FB00005A94FF0804005F01BF808A804F0F1FEB9
:103FC0000820ADF8280008A9C00604F099FE0420D6
:103FD000ADF8200008A9000704F092FE0020ADF81B
:103FE0000400ADF806000220ADF80C0040F20550C8
:103FF000ADF80A0001A9800704F052FF01A94FF0B3
:10400000804004F089FF00231A4603214FF08040CE
:1040100004F054FE00204FF080418884012188077D
:1040200004F0D5FD0121880704F0D7FD0DB000BDD7
:10403000000801403001002000B58DB001210220B0
:1040400001F0F8FF0121102002F00CF801213B489B
:10405000FFF728F80CA8FFF750F8C020ADF83000A3
:1040600004208DF833000CA93548FEF7CBFF4FF440
:10407000A06000F073FD1D208DF82C0002208DF84B
:104080002D0003208DF82E0001208DF82F000BA8A5
:1040900000F02AFD2B4804F0B7FD05A804F0C6FF88
:1040A0000020ADF814004FF6FF70ADF818000020A6
:1040B000ADF81A00ADF8160005A9224804F098FFE3
:1040C00008A804F06EFE0820ADF8280008A91D48D5
:1040D00004F016FE0420ADF8200008A9194804F0E9
:1040E0000FFE0020ADF80400ADF806000220ADF888
:1040F0000C0040F20550ADF80A0001A9114804F087
:10410000CFFE01A90F4804F007FF00231A46032140
:104110000C4804F0D3FD00200B4908804FF001014A
:10412000084804F054FD01221146064804F041FEFF
:104130000121044804F051FD0DB000BD000C1A002F
:104140000010014000040040240400401FB501217C
:10415000042001F06FFF194804F056FD4FF6FF7080
:10416000ADF808000020ADF80400ADF80A00ADF885
:10417000060001A9114804F03BFF4FF4A06000F0D5
:10418000EDFC1E208DF8000000208DF801008DF858
:10419000020001208DF80300684600F0A5FC4EF6F1
:1041A0006021064804F0FAFE01220221034804F0CF
:1041B00000FE0121014804F010FD1FBD0008004071
:1041C0001FB50121082001F035FF194804F01CFD3E
:1041D0004FF6FF70ADF808000020ADF80400ADF810
:1041E0000A00ADF8060001A9114804F001FF4FF4E0
:1041F000A06000F0B3FC32208DF8000000208DF8A4
:1042000001008DF8020001208DF80300684600F0DF
:104210006BFC4EF66021064804F0C0FE012202212C
:10422000034804F0C6FD0121014804F0D6FC1FBD7F
:10423000000C00401FB50121202001F0FBFE1948B1
:1042400004F0E2FC4FF4A040ADF808000120ADF806
:1042500004000020ADF80A00ADF8060001A91148DD
:1042600004F0C6FE4FF4A06000F078FC37208DF813
:10427000000000208DF801008DF8020001208DF86B
:104280000300684600F030FC0121064804F09FFC62
:1042900001221146034804F08CFD0021014804F07E
:1042A0009CFC1FBD00140040014610480068401EE1
:1042B000884202DA0D480068411E0D48C06B012893
:1042C00008D10C4800684843084A1268521E90FB07
:1042D000F2F07047074800684843044A1268521ECB
:1042E00090FBF2F0034A1268101AF2E7B0010020C6
:1042F000307D00208C0200202DE9F041FB48B0F910
:1043000000000D286FD2DFE800F06E0721C5FEFD2A
:10431000FCFBFAF9F8F7F600F449B1F9020003F0F2
:1043200013FD0120F249088002F04CF800B2F04978
:104330004880F048006800B28880EF48006800B20A
:10434000C880EE48006800B20881DFE2E748B0F9B3
:104350000200EB490860E548B0F90600E949086049
:10436000E249B1F90400FFF789F8E7490860E74836
:10437000006818B1002003F0E7FC76E0E048006830
:1043800003280DD1E2480068012806D10020DE494B
:1043900008600220DA49086002E00120DD49086077
:1043A000D748006802282AD1DB4807680246D2F8BD
:1043B00000804FEAE87208EB9272D34B1B6803EB64
:1043C000A200FA1707EB9272911003F0BDFE58B1EC
:1043D000D248C06B012802D1C94908600FE0002013
:1043E000C74908600BE072E2CC48C06B012803D1DA
:1043F0000020C349086002E00120C1490860C048AC
:10440000006810B101282FD116E0C448C06BC44920
:104410000860BD480068C3490860BB480168B748E8
:10442000006802F049FB0746002103F0A3FDB548F0
:10443000006803F089FC17E0B848C06BB849086011
:10444000B1480068B7490860AC480168AE480068E8
:1044500002F032FB0746002103F08CFDA9480068FA
:10446000404203F071FC00BF00BF0220A049088059
:1044700001F0A8FF00B29E4948809E48006800B243
:1044800088809D48006800B2C8809C48006800B2DF
:1044900008813BE29548B0F904009449498800EB53
:1044A0000140A14908600846006810B902F0DCFC30
:1044B0006EE08E49B1F90800FEF7E0FF9949086007
:1044C000994800684FF4B47190FBF1F09249096883
:1044D00000FB01F4944800684FF4B47190FBF1F2D2
:1044E00001FB1200904908608B4800680968484346
:1044F0004FF4B47108E0CFE172E163E14CE1D9E03F
:10450000BCE0A6E070E058E090FBF1F0864908605E
:104510000846006804448148C06B01280AD17748E6
:104520000068096808447C49096890FBF1F201FBC6
:1045300012060DE0714800687749096808447A4915
:104540000968401A7449096890FBF1F201FB1206F0
:1045500074480168304602F0AFFA734908606E494A
:10456000086800EBD071704A1268B2EB610F06DD8B
:10457000694800686C490968401A241A02E06A48D0
:10458000006804445948B0F90610204603F0F2FCD4
:1045900003205749088001F015FF00B254494880B4
:1045A0005448006800B288805348006800B2C88050
:1045B0005248006800B20881A8E15C480068FEF734
:1045C00069FF054604204A49088001F0FBFE00B25D
:1045D000474948804748006800B28880281400B2E4
:1045E000C88028B2088191E14048B0F90200401C1F
:1045F00002D103F0E3F817E03C48408888B13B481B
:10460000808870B13948B0F90200494909684843C7
:104610003649B1F9041090FBF1F7384603F072FC0B
:1046200002E001204349086005203149088001F07B
:10463000C9FE00B22E4948802E48006800B288802A
:104640002D48006800B2C8802C48006800B208817C
:104650005CE106202649088001F0B4FE00B224493E
:1046600048802448006800B288803148006800B261
:10467000C8802948006800B2088147E11D480068E9
:104680003C2802DA00201B490860072018490880EE
:1046900001F098FE00B2164948801648006800B242
:1046A00088801548006800B2C8801448006800B2CD
:1046B00008812BE102F0E6FB401C062856D2DFE819
:1046C00000F0030A3D43494F4FF0FF30084908818D
:1046D000194908604AE005484088054908810348AF
:1046E000B0F902001449086040E00000C007002053
:1046F000B40700205C0100208C010020AC010020E8
:10470000A0010020A40100202401002018020020A4
:104710004C02002048020020B0010020307D002023
:1047200010020020D401002010000020CC01002045
:10473000340100203C0200202C01002001207B4994
:1047400008817B49086011E0022078490881784996
:1047500008600BE00320754908817549086005E091
:104760000420724908817249086000BF00BF082018
:104770006E49088001F026FE00B26C4948806D4801
:10478000006800B288806C48006800B2C88002F0FF
:1047900075FEFFF7CDFBB9E009206449088001F000
:1047A00011FE00B2614948806248006800B288800A
:1047B0006148006800B2C88002F064FB00B25B4947
:1047C0000881A3E00A205949088001204880888098
:1047D00040F2A510C8805948008800B2088195E0D1
:1047E0005749B1F9020001F0D7FBB8B95448B0F904
:1047F000040054490968C968884221DB5048B0F96F
:104800000400504909680969884219DC4C48B0F92C
:1048100004004C4909680968086011E00B2043490D
:10482000088001F0CFFD00B240494880414800684F
:1048300000B288804FF0FF30C8800020088165E01A
:104840000B203A49088001F0BDFD00B2374948808D
:104850003848006800B288803A480068406800B272
:10486000C880384800680068006800B2088136488F
:10487000806B30B13448806B00EB800040003349DE
:1048800008603148806C324951F820003149086095
:104890000120FEF70BFE39E00C202449088001F0CE
:1048A00091FD00B2214948802248006800B288800A
:1048B0002148006800B2C8802748006800B208811B
:1048C0001F484088282801D1244908801EE01E483E
:1048D000806B30B11C48806B00EB800040001B49AE
:1048E000086020201149088001F06CFD00B20F49DA
:1048F00048801048006800B288800F48006800B205
:10490000C8801548006800B2088100BF00BF074892
:10491000008881B2124803F001FD0A210348FDF727
:104920000DFE00B201494881BDE8F081B4070020C6
:104930002C0100205C0100208C0100207A9E0008E0
:10494000C007002084020020307D0020700100207C
:10495000849E0008F8000020AC01002060010020C7
:10496000003001402DE9F04F46F6404900FB09F5C3
:104970004FF47A5901FB09F9C9F10006324606EBFA
:10498000050909EBD97A4FEA6A03A6EB050909EB99
:10499000D97A4FEA6A04002B06DA002C00DA2FE0FD
:1049A000002A00DC07E050E0002C00DB28E0002AB1
:1049B00000DC4AE000BF02F57A5BABEB040A0AEBCD
:1049C000DA7B4FEA6B094FEAE97B09EBDB3B4FEA05
:1049D0006B4B0BF5FA6B1FFA8BF7A1464FEAE47AA3
:1049E00004EBDA3A07EB6A4A1FFA8AFC91464FEA6F
:1049F000E27A02EBDA3AACEB6A4A1FFA8AF849E04B
:104A000003F57A5BABEB040A0AEBDA7B4FEA6B093E
:104A10004FEAE97B09EBDB3B4FEA6B4B0BF5FA6B9B
:104A20001FFA8BF7A1464FEAE47A04EBDA3A07EB78
:104A30006A4A1FFA8AFC99464FEAE37A03EBDA3AAC
:104A4000A7EB6A4A1FFA8AF824E0C2F57A5B0BEBFF
:104A5000030A0AEBDA7B4FEA6B094FEAE97B09EBC1
:104A6000DB3B4FEA6B4B0BF5FA6B1FFA8BF7994662
:104A70004FEAE37A03EBDA3AA7EB6A4A1FFA8AF8BD
:104A800091464FEAE27A02EBDA3A08EB6A4A1FFAF9
:104A90008AFC00BFDFF81090A9F8347CA9F838CC64
:104AA000A9F83C8CBDE8F08F0020014000BFFEE774
:104AB000704710B54FF40051880300F059F84FF4D7
:104AC000A06000F04BF810BD024901480860704733
:104AD0000100FA050CED00E002490148086070474A
:104AE0000400FA050CED00E0F0B50F23C278017860
:104AF0004FF0E024012742B3D4F80C2D467802F49D
:104B0000E062C2F5E062120AC2F10405D340827885
:104B1000AE401A40324315018A07D20E954021F06B
:104B200003010B19D3F80064FF2191408E430D401F
:104B30002E43C3F800640078410900F01F0004EB25
:104B400081018740C1F80071F0BD01F01F0087406E
:104B5000480904EB8000C0F88071F0BD02490843A9
:104B600002490860704700000000FA050CED00E003
:104B7000024A1140014302480160704780FFFF1F55
:104B800008ED00E070B54FF0E026D6F80C3DFF24AC
:104B900003F4E063C3F5E0631B0ADC40C3F10405E2
:104BA000A94022400A43110100F0C0029209C0F35B
:104BB0000120C0008140FF23834006EB820000F605
:104BC000185002689A43026002680A43026070BD8E
:104BD00010B52949886D04F0A7FD284908602848C8
:104BE0000068401E0968401A244908602449096881
:104BF000481E00EBD071214A126802EB6101204A85
:104C00001268521E91FBF2F302FB13111D4A116050
:104C10001A4800680C2802DA0C2018490860184865
:104C200000680C3815490968884204DA144800689D
:104C30000C3812490860134800680C2802DA0C206E
:104C4000104908600E4800680C380E49096888420F
:104C500004DA0B4800680C380A4908600648C06B43
:104C600048B90648006840420449086005480068A1
:104C700040420449086010BD307D002064020020DD
:104C8000B00100206802002010B52949C86D04F069
:104C90004BFD2849086028480068401E0968401AF2
:104CA0002449086024490968481E00EBD071214A54
:104CB000126802EB6101204A1268521E91FBF2F366
:104CC00002FB13111D4A11601A4800680C2802DA11
:104CD0000C2018490860184800680C381549096804
:104CE000884204DA144800680C38124908601348F6
:104CF00000680C2802DA0C20104908600E48006891
:104D00000C380E490968884204DA0B4800680C38F0
:104D10000A4908600648C06B48B906480068404226
:104D2000044908600548006840420449086010BD15
:104D3000307D002070020020B001002074020020AD
:104D400010B5002208210C4804F033F80122D102EA
:104D50000A48FEF749FA012009490860FFF738FFC1
:104D60000848006881B2044804F01AF901220821B9
:104D7000014804F01EF810BD000400400008014086
:104D80006C0200206402002010B5002210210C48A3
:104D900004F00FF8012211030A48FEF725FA01205A
:104DA00009490860FFF770FF0848006881B20448AD
:104DB00004F0F8F801221021014803F0FAFF10BDB9
:104DC000000400400008014078020020700200202A
:104DD0002DE9F04393B00024002500260027F84871
:104DE0000068022808D1F748006828B9F648806BA7
:104DF00010B1DE20F5490860F5480068012806D1A9
:104E0000F448006818B904F01DF903F0BFFCF0483D
:104E1000006802280CD1EF48006848B904F012F984
:104E200003F0B4FCDF20E9490860302003F09CFC6B
:104E300004F01AF9002801F02A80E149083901F14B
:104E40000C0212688818012104F0B0F9DC48083817
:104E500000780B2876D00FDC0B2880F0D487DFE8B1
:104E600010F02D009700D5004C01E70198023D039A
:104E7000AA033E04B804240513287ED00CDCA0F15C
:104E80000C000728E9D2DFE810F04A050F05BE073D
:104E9000BE076705AF050006702800F0DB8606DC5C
:104EA000142800F09286202840F0AD87F4E37128A2
:104EB00000F015877228F7D100F04DBFC048006898
:104EC00020B101282BD002285FD127E0BC48001D6B
:104ED000006801280DDABA48001D0068401CB84976
:104EE000091D08600120BA4908600A20B949086014
:104EF00013E00020B249091D086003F047FCB048E8
:104F00000838407838B90120AD490860B2480078C7
:104F100003F02AFC01E004F095F836E000BFA84851
:104F2000001D006801280EDAA548001D0068401C1D
:104F3000A349091D08600120A54908600A20A54968
:104F4000086021E0F1E300209D49091D086003F09D
:104F50001DFC9B4808384078A0B902209849086099
:104F60000839087803F000FC01F0F0FA974800686F
:104F7000DF2809D10020954900E0FEE30860974949
:104F8000086001E004F05EF800BF00BF00F07EBFE3
:104F90008B480068022805D004F054F800208849A6
:104FA0000860F3E78648001D0068012809DA844894
:104FB000001D0068401C8249091D086003F0DAFBEF
:104FC00023E000207E49091D086003F0DFFB7F48D5
:104FD000006828B1FEF718F9804603F0C5FBD5E755
:104FE00077480838407801280AD1002002F0ACFE4A
:104FF00073490839087803F0B7FB01F0A7FA04E019
:1050000004F020F8332003F0AFFBBFE76C480068E2
:10501000022805D004F016F8002069490860B5E7B9
:105020006748001D0068022809DA6548001D00680D
:10503000401C6349091D086003F09CFB5CE00020F4
:105040005F49091D086003F0A1FB6048006828B1B2
:10505000FEF7DAF8804603F087FB97E7022158480D
:105060000838FEF7C6F856490839897888423ED193
:1050700053490839487804F057FB594908605948A2
:10508000006818B1002002F05FFE28E05648006872
:1050900001281DD155480068012802D054480068F5
:1050A000B0B94948C06B534908604D48006852493F
:1050B00008604B4801685148006801F0FDFC8046DB
:1050C000002102F057FF4049486B02F03DFE06E028
:1050D00001204B4908603C49486B02F035FE3849D5
:1050E0000839087803F040FB01F030FA04E003F0DF
:1050F000A9FF332003F038FB48E731480068022855
:1051000005D003F09FFF00202D4908603EE72C48A2
:10511000001D0068022809DA2948001D0068401CAB
:105120002749091D086003F025FB80E00020244981
:10513000091D086003F02AFB2448006828B1FEF727
:1051400063F8804603F010FB20E702211C48083872
:10515000FEF74FF81A4908398978884262D1184910
:105160000839487804F0E0FA1D4908601D480068D5
:1051700018B1002002F0E8FD4DE01B48006801284E
:1051800041D11A480068012802D019480068C8BBFC
:105190000D48C06B1749086011480068164908603F
:1051A000164801680E48006801F086FC8046002120
:1051B00002F0E0FE0449496B484202F0C5FD2AE0D6
:1051C0009802002070010020307D00205C0100204A
:1051D0005802002074010020789E00084002002040
:1051E00024010020180200204C0200203802002078
:1051F0002C02002010020020D4010020AC0100206D
:1052000050020020FFE70120F8490860F849496B87
:10521000484202F099FDF749087803F0A5FA01F039
:1052200095F904E003F00EFF332003F09DFAADE69C
:10523000F04808300068022806D003F003FF002081
:10524000EC4908310860A1E6EA480C300068022801
:1052500009DAE8480C300068401CE6490C31086067
:1052600003F088FA94E00020E2490C31086003F072
:105270008DFAE148006828B1FDF7C6FF804603F0CB
:1052800073FA83E60221DB48FDF7B3FFD949897839
:10529000884278D1D749487804F046FAD74908605F
:1052A000D7480068012863D1D6480068012803D098
:1052B000D548006800285BD1D448006818B10020A8
:1052C00002F042FD57E0D248D0F800800246D2F802
:1052D00000904FEAE97209EB9272C84B1B6803EB2E
:1052E000A2004FEAE87208EB9272911002F02CFFD4
:1052F00038B1BF48C06B012801D1012708E0002761
:1053000006E0BB48C06B012801D1002700E001275F
:10531000BFB1B748C06BBF490860B8480068BE4914
:105320000860BE480168B548006801F0C5FB8046CA
:10533000002102F01FFEAE49496B484202F004FD15
:1053400019E0AB48C06BB3490860AC480068B2498B
:105350000860AA480168B148006801F0ADFB8046CA
:10536000002102F007FEA249486B02F0EDFC02E0CA
:105370000120AB4908609F49087803F0F5F901F076
:10538000E5F805E0FFE703F05DFE332003F0ECF9FC
:10539000FCE5984808300068022806D003F052FE69
:1053A0000020944908310860F0E592480C3000680C
:1053B000012809DA8F480C300068401C8D490C31F7
:1053C000086003F0D7F988E000208A490C310860B2
:1053D00003F0DCF98848006828B1FDF715FF804626
:1053E00003F0C2F9D2E583484078052870D1002047
:1053F0008249086082480068012857D181480068C6
:10540000012803D08048006800284FD17F480068F9
:1054100018B1002002F098FC52E07D48D0F80080DE
:105420000246D2F800904FEAE97209EB9272734B90
:105430001B6803EBA2004FEAE87208EB927291102E
:1054400002F082FE08B9012700E00027BFB16848DA
:10545000C06B70490860694800686F4908606F4810
:1054600001686648006801F027FB8046002102F0D1
:1054700081FD5F49496B484202F066FC20E05C48D0
:10548000C06B644908605D480068634908605B4818
:1054900001686248006801F00FFB8046002102F0BD
:1054A00069FD5349486B02F04FFC09E0574800681A
:1054B00018B1002002F048FC02E0012058490860C1
:1054C0004C49087803F050F901F040F805E0FFE797
:1054D00003F0B8FD332003F047F957E5454808309D
:1054E0000068022806D003F0ADFD002041490831D4
:1054F00008604BE53F480C300068012809DA3D4858
:105500000C300068401C3B490C31086003F032F954
:1055100050E0002037490C31086003F037F9364875
:10552000006828B1FDF770FE804603F01DF92DE5F7
:1055300030484078062838D131480068012817D112
:105540002C4800788DF80C0034480068FEF7ACFE5B
:10555000C0B28DF80D00022103A8FDF74AFE8DF8B8
:105560000E00032103A803F085FE00F0EFFF21E009
:105570002C48006898B11F4800788DF80C00002076
:105580008DF80D00022103A8FDF733FE8DF80E0003
:10559000032103A803F06EFE00F0D8FF0AE03E20CE
:1055A00003F0E2F800F0D2FF04E003F04BFD3320FB
:1055B00003F0DAF8EAE40F4808300068022806D061
:1055C00003F040FD00200B4908310860DEE4094883
:1055D0000C300068022827DA06480C300068401CAE
:1055E00004490C31086003F0C5F877E05002002050
:1055F000307D0020900200205C010020240100206A
:105600004C020020380200202C020020180200204A
:10561000B001002010020020D4010020AC010020C5
:1056200048020020540200200020FB49086003F0DB
:10563000ADF80221F8480C38FDF7DBFDF6490C39CE
:105640008978884245D1F4480C38407820B1012847
:1056500012D0022831D120E0EF480C3800788DF8C4
:105660000C00FDF70BFE8DF80D00022103A8FDF7DD
:10567000C0FD8DF80E0024E0E7480C3800788DF866
:105680000C00FDF733FE8DF80D00022103A8FDF795
:10569000B0FD8DF80E0014E05EE2DF480C380078B3
:1056A0008DF80C00FDF7B0FD8DF80D00022103A868
:1056B000FDF79FFD8DF80E0003E0342003F054F851
:1056C00000BF00BF032103A803F0D4FD00F03EFF9C
:1056D00004E003F0B7FC332003F046F8D6E3CE48ED
:1056E000001F0068022806D003F0ACFC0020CA4965
:1056F000091F0860CAE3C8480068022807DAC648DC
:105700000068401CC449086003F034F860E00020E1
:10571000C149086003F03AF8C048006830B1FDF7AD
:1057200073FD804603F020F8B0E3DBE00221BA48C5
:105730000C38FDF75EFDB8490C398978884242D1B2
:10574000B5480C384078292839DAB3480C38407805
:10575000B34951F82050B348854216D1AE480C38B1
:1057600000788DF80C0000208DF80D00022103A8B0
:10577000FDF73FFD8DF80E0000E0D0E1032103A806
:1057800003F078FD00F0E2FE22E0A3480C38007838
:105790008DF80C0028680068A96890FBF1F0C0B291
:1057A0008DF80D00022103A8FDF723FD8DF80E00F2
:1057B000032103A803F05EFD00F0C8FE08E03620D8
:1057C00002F0D2FF04E003F03DFC332002F0CCFFF6
:1057D0005CE39148001F0068022806D003F032FC09
:1057E00000208D49091F086050E38B48006803289A
:1057F00007DA89480068401C8749086002F0BAFF50
:1058000051E000208449086002F0C0FF834800682E
:1058100028B1FDF7F9FC804602F0A6FF36E303212C
:105820007D480C38FDF7E5FC7B490C39C978884286
:1058300034D179480C38407829282BDA76480C384E
:105840004078774951F820507648854205D1724911
:105850000C39087802F088FF25E06F480C38807812
:10586000A96800FB01F6E868B04202DC2869B04292
:1058700003DA372002F078FF15E0286806606649F1
:105880000C39087802F070FF00F060FE686800F0E4
:105890002BFD08E0362002F067FF04E003F0D2FBA6
:1058A000332002F061FFF1E200BF5B48001F006897
:1058B000022806D003F0C6FB00205749091F0860E4
:1058C000E4E25648006828B1FDF79EFC804602F0ED
:1058D0004BFFDBE250490C39087802F045FF00F03D
:1058E00035FED3E24C48001F0068022806D003F0C2
:1058F000A9FB00204849091F0860C7E24748006823
:1059000028B1FDF781FC804602F02EFFBEE242493D
:105910000C39087802F028FF00F018FEB6E23E4885
:10592000001F0068022806D003F08CFB00203A49D3
:10593000091F0860AAE23948006828B1FDF764FC35
:10594000804602F011FFA1E233490C39087802F0D9
:105950000BFF00F0FBFD99E22F48001F00680228B2
:1059600006D003F06FFB00202B49091F08608DE271
:1059700029480068032807DA27480068401C2649A0
:10598000086002F0F7FE2EE000202349086002F0D4
:10599000FDFE2248006828B1FDF736FC804602F083
:1059A000E3FE73E203211C480C38FDF722FC1A4980
:1059B0000C39C978884213D117480C3840781649F9
:1059C0000C39897800EB012084B220B202F0BCF9D6
:1059D00011490C39087802F0C7FE00F0B7FD02E06B
:1059E000332002F0C1FE51E20B48001F006802287C
:1059F00006D003F027FB00200749091F086045E295
:105A00000548006803280FDA03480068401C024973
:105A1000086002F0AFFE37E09C0200205C0100202D
:105A20006CA3000854A300080020FD49086002F0A0
:105A3000ADFEFC48006828B1FDF7E6FB804602F0A9
:105A400093FE23E20321F6480C38FDF7D2FBF4491C
:105A50000C39C978884214D1F1480C384078F049A3
:105A60000C39897800EB012084B220B2404202F068
:105A70006BF9EB490C39087802F076FE00F066FD10
:105A800002E0332002F070FE00E2E548001F0068EB
:105A9000022806D003F0D6FA0020E149091F086069
:105AA000F4E1DF480068012807DADD480068401C9F
:105AB000DB49086002F05EFE30E00020D849086053
:105AC00002F064FED748006828B1FDF79DFB8046D0
:105AD00002F04AFEDAE1D2480C384078122818D198
:105AE0008DF80C00D0480068C0B28DF80D00CE488B
:105AF0000068000A8DF80E00032103A8FDF779FB6A
:105B00008DF80F00042103A803F0B4FB00F01EFD84
:105B100004E003F097FA332002F026FEB6E1C04815
:105B2000001F0068022806D003F08CFA0020BC4950
:105B3000091F0860AAE1BB48006828B1FDF764FBB3
:105B4000804602F011FEA1E1B5490C39087802F057
:105B50000BFE00F0FBFC99E1B148001F0068022831
:105B600006D003F06FFA0020AD49091F08608DE1EF
:105B7000AB480068012807DAA9480068401CA8491A
:105B8000086002F0F7FD1FE00020A549086002F060
:105B9000FDFDA448006828B1FDF736FB804602F001
:105BA000E3FD73E19E480C384078202807D19C49DA
:105BB0000C39087802F0D8FD00F0C8FC04E003F0CE
:105BC00041FA332002F0D0FD60E19548001F0068E3
:105BD000022806D003F036FA00209149091F086018
:105BE00054E18F480068012807DA8D480068401C9E
:105BF0008B49086002F0BEFD2BE000208849086058
:105C000002F0C4FD8748006828B1FDF7FDFA804620
:105C100002F0AAFD3AE182480C384078142813D1EA
:105C20008DF80C0081490DF10D0003F0A7FD09214D
:105C300003A8FDF7DEFA8DF815000A2103A803F08A
:105C400019FB00F083FC04E003F0FCF9332002F0C0
:105C50008BFD1BE17248001F0068022806D003F08C
:105C6000F1F900206E49091F08600FE16C480068D7
:105C7000012807DA6A480068401C6949086002F098
:105C800079FD2BE000206649086002F07FFD654841
:105C9000006828B1FDF7B8FA804602F065FDF5E02E
:105CA0005F480C384078702813D161480368614818
:105CB00002686148CDE9002303686048026860A17A
:105CC00003A803F05BFD03A803F098FA00F03EFC84
:105CD00004E003F0B7F9332002F046FDD6E0504867
:105CE000001F0068022806D003F0ACF900204C49E0
:105CF000091F0860CAE04A480068012807DA4848D6
:105D00000068401C4649086002F034FD22E0002093
:105D10004349086002F03AFD4248006828B1FDF7A7
:105D200073FA804602F020FDB0E03D480C38407820
:105D300071280AD100204749086039490C39087890
:105D400002F012FD00F002FC04E003F07BF93320C6
:105D500002F00AFD9AE03248001F0068022806D0CF
:105D600003F070F900202E49091F08608EE02C48CE
:105D70000068012807DA2A480068401C28490860A2
:105D800002F0F8FC3EE000202549086002F0FEFC2D
:105D90002448006828B1FDF737FA804602F0E4FC99
:105DA00074E01F480C384078722826D100261FE086
:105DB000294830F91630294830F91620284830F99A
:105DC000161028488DE80E0030F91630264830F9B4
:105DD000162026A103A803F0D1FC03A803F00EFAB5
:105DE00000BF26480068264909688842F9D1761C18
:105DF000184800688642DBDB04E003F023F9332017
:105E000002F0B2FC42E00648001F0068022839D0C8
:105E100003F018F900200249091F086036E000006D
:105E20009C0200205C0100208C0100207C9E000868
:105E30002002002064000020AC010020840100202A
:105E4000256420272025642027202564202720255D
:105E500064000000FC000020B0650020404E0020DF
:105E6000D0360020601F0020F007002025642C257C
:105E7000642C25642C25642C25640A00480000202D
:105E80004C000020312002F06FFC00BF00BF13B0B7
:105E9000BDE8F08370B50446551AA668206805FB76
:105EA00006002060114E2068B04202DD30462060BE
:105EB00006E00E4E76422068B04201DA304620609D
:105EC000D4E9000605FB060042F2107690FBF6F3DB
:105ED000B3F57A7F02DD4FF47A7070BD13F57A7FE7
:105EE00001DA0348F9E71846F7E7000080969800C2
:105EF00018FCFFFFF0B50346B1F57A7F07DD42F2EB
:105F0000107090FBF1F01F4F37F810600BE0642920
:105F100007DD4FF47A7090FBF1F01B4F37F81060FB
:105F200001E041F28836501A70434FF47A7790FBC3
:105F3000F7F49F68186804FB07001860134F18688F
:105F4000B84202DD3846186006E0104F7F421868FC
:105F5000B84201DA38461860D3E9000704FB0700AD
:105F600042F2107790FBF7F5B5F57A7F02DD4FF43A
:105F70007A70F0BD15F57A7F01DA0548F9E7284611
:105F8000F7E700001A9E0008049E0008809698001B
:105F900018FCFFFF7047000001460B480B4A1060D9
:105FA00000BF0A4800684068884201D1002070475D
:105FB0000648026800681830044B186004488242A2
:105FC000EFD14FF0FF30F2E7EC9E00088402002092
:105FD00054A30008704700000A48C089152806D05D
:105FE000162803D0282804D10120704700BF0220C2
:105FF000FBE70448C07A042801D1401FF5E70020E0
:10600000F3E70000207D0020034A516821F440415D
:10601000014351607047000000100240044A00290B
:10602000516901D0014300E0814351617047000094
:1060300000100240044A0029D16901D0014300E068
:106040008143D1617047000000100240044A0029DA
:10605000116901D0014300E08143116170470000E4
:1060600000100240044A0029916901D0014300E078
:10607000814391617047000000100240044A0029EA
:10608000D16801D0014300E08143D1607047000036
:106090000010024010B500F02FF84FF4803000F0EF
:1060A000BDF800F005F90446012C24D1002000F0D1
:1060B000ABF8002000F0D8F8A00200F0CBF80220E6
:1060C000FCF7D4FE1020FCF7A3FE4FF4E0112004EF
:1060D00000F0DAF8012000F0D1F800BF392000F01C
:1060E00073F80028FAD0022000F0D8F800BF00F0C2
:1060F00083F80828FBD110BD0B48016841F001016D
:1061000001604168094A114041600168084A114034
:106110000160016821F4802101604268002122F4BD
:10612000FE02426081607047001002400000FFF8EC
:10613000FFFFF6FE30B5204A5168204B11F00C01EC
:1061400003D0042901D0082901D0036011E051686F
:10615000022401F4701104EB91415468184D14F4B9
:10616000803F02D05468A40301D5694300E059433D
:1061700001605168134B01F0F00109095C5C016892
:10618000E1404160546804F4E064240A1C5D21FA93
:1061900004F48460546804F46054E40A1B5DD9403C
:1061A000C1605268074B02F44042920B1B1F9A5C7D
:1061B000B1FBF2F1016130BD0010024000127A0023
:1061C00000093D00DCAC0008034600205909094ADB
:1061D000012901D1116804E0022901D1116A00E00E
:1061E000516A03F01F02012393400B4200D00120AB
:1061F00070470000001002400248406800F00C00A8
:106200007047000000100240034A516821F0F0017D
:106210000143516070470000001002400B490A68BA
:1062200022F480320A600A68B0F5803F22F48022AE
:106230000A6007D0B0F5802F03D1086840F4A02091
:1062400008607047086840F48030F9E700100240A9
:1062500070470000034A516821F4E0610143516036
:106260007047000000100240034A516821F4605159
:1062700041EAC000506070470010024001490866C2
:106280007047000000004242034B5A68084322F462
:106290007C1210435860704700100240034A516856
:1062A00021F00301014351607047000000100240DB
:1062B00030B50B4C40F2FF153120FFF785FF207001
:1062C0006068401C6060207810B96068A842F3D113
:1062D0003120FFF779FF002800D0012030BD0000F9
:1062E000D40200207047704710B50446102C46D0E9
:1062F00006DC012C3ED0022C3DD00D2C4DD104E00B
:10630000642C44D0652C48D144E000220821244864
:1063100002F04FFD0122D1022248FCF765FF012067
:1063200021490860FEF754FC2048006881B21C48EF
:1063300002F036FE01220821194802F03AFD00223F
:106340001021174802F035FD012211031548FCF712
:106350004BFF012016490860FEF796FC15480068BF
:1063600081B20F4802F01EFE012210210C4802F0FB
:1063700020FD12E000BF0120FDF798F80DE00E4867
:10638000806C0E4951F820000D49086005E0FEF7C9
:10639000D7FC02E0FEF7F8FC00BF00BF10BD000014
:1063A00000040040000801406C020020640200204C
:1063B0007802002070020020307D0020849E0008BA
:1063C000F80000203948006808B1012000E00020F2
:1063D0003749098860F30001354801803548006875
:1063E00008B1012000E000203149098860F3410133
:1063F0002F48018030480068072801D1012000E0C3
:1064000000202B49098860F38201294801802B482C
:10641000006808B1012000E000202549098860F3E8
:10642000C3012348018024480068082801D10120C5
:1064300000E000201E49098860F304111C48018017
:106440001F48006808B1012000E0002018490988B1
:1064500060F34511164801801A4800683C2801DDA8
:10646000012000E000201249098860F38E311048B5
:106470000180154800681549096888420BD0012140
:106480000B48008861F34D30094908800F480068C7
:106490000D49086006E000210548008861F34D3091
:1064A0000349088002480088704700001802002055
:1064B0007C02002030020020640000201402002032
:1064C000D80100205C0100200C0000200C010020FD
:1064D00010B54160026083600024C460046110BD97
:1064E000F0B50346551A1F68D86805FB0700D86049
:1064F000144FD868B84202DD3846D86006E0114F24
:106500007F42D868B84201DA3846D8601869281A3C
:106510009F6800FB07F41D615F68D86805FB0700F2
:10652000204442F2107790FBF7F6B6F57A7F02DD51
:106530004FF47A70F0BD16F57A7F01DA0248F9E778
:106540003046F7E78096980018FCFFFF0348806B01
:1065500000EB80004000024908607047307D002059
:106560007001002000B593B01822C8490DA8FBF7B0
:106570001AFE1822C549183107A8FBF714FE182285
:10658000C249303101A8FBF70EFEC148006830B1A6
:10659000012836D002287DD0032831D1AEE0012079
:1065A000BC4908607F21BC4803F0B4F801F0CCFC82
:1065B0000121BA4802F011FB0121B84802F018FB92
:1065C0003220B74908600020B64908600120B04970
:1065D00008604FF4E160B249091F08604FF4E040E1
:1065E000B1490880B1480068022802D0042806D1C9
:1065F00000E000BF4FF42040AB49088000BF00BF5F
:1066000040E1A7480068002854D10DA8A5490968B1
:1066100050F82100A249091F09684843642190FBF2
:10662000F1F000F5FA60A249086007A89D490968E1
:1066300050F821009A49091F09684843642190FBDA
:10664000F1F000F5FA609B49086001A895490968D6
:1066500050F821009249091F09684843642190FBC2
:10666000F1F000F5FA609449086091480068934998
:106670000880904800689249A1F8380C8E4800685C
:10668000904908804FF00101844802F0A6FA0121E8
:10669000824800E014E002F0ABFA00208A49A1F839
:1066A0002404012180482C3802F097FA022078490E
:1066B000086004E07A480068401E79490860E1E01B
:1066C00082480068012818D1002080490860022013
:1066D0007349086073480068052808DA7148006843
:1066E000401C7049086001206949086005E00020ED
:1066F0006C490860032066490860C3E0744800687C
:10670000FF2807DD72488068FF2803DD70480069B4
:10671000FF280EDC01F018FC00205E490860AF2065
:106720006C49086001206C490860002058490860E5
:10673000A8E0002069490860654800686449496824
:10674000884205DA6548006840F001006349086046
:106750005F4880685E49C968884205DA5F4800681A
:1067600040F002005D49086059480069584949698C
:10677000884205DA5948006840F00400574908602B
:1067800056480068082844D2DFE800F03B040D16A4
:106790002029313F52480068001A524909680844CC
:1067A0004E49086035E04E4800684E49096801EBE3
:1067B00080004A4908602CE04948006800EB8000EE
:1067C0004849096808444549086022E0444800688F
:1067D0004449096801EB40004049086019E040481D
:1067E00000684049096808443C49086011E03C4899
:1067F000006800EB40003B490968084437490860DD
:1068000007E001203549086003E0022033490860B1
:1068100000BF00BF31480068334909680844334964
:10682000096808443049096890FBF1F201FB120045
:106830004FF0804188842E480068B0B14FF4FA6070
:106840001E4908801E49A1F8380C1E4908804FF0E7
:106850000101124802F0C1F90121104802F0C8F903
:106860002348006801F070FA05E00020084908603C
:1068700001201949086000200649086001201D49CF
:10688000086000BF00BF13B000BD0000309E0008CC
:106890009C0100201C02002000480040002C014008
:1068A000B4000020E00100202C1400402C01002046
:1068B000580000205C00002060000020342C0140C3
:1068C000002001403C2C0140001000402402002028
:1068D0001C0700205C010020640000207C000020D8
:1068E0004801002044010020340100202001002044
:1068F000B4010020200200200C48006B0C490968FC
:10690000081A0C490968884207DD0848006B0849E5
:106910000968081A0649086006E006480068044944
:10692000086000200449086070470000307D0020A6
:106930009401002090010020140200204FF08040BC
:10694000808C1B49096808441A490968401A18498B
:10695000096890FBF1F201FB120017490860174823
:106960000068F8B116480088B0F5004F08DD1448FB
:10697000008800B21349096808441349086003E01D
:106980000F480088104908600F480068002805DBA0
:106990000D4800680B490968884207DB00200A4956
:1069A000086003E004480068074908607047000079
:1069B00034010020200100207C0100202C02002056
:1069C00024040040B0010020AC01002030B50021BB
:1069D0001B4B1B684EF6602494FBF3F2194B1B68AB
:1069E000834216DD174B1B68191A174B1B6B91FB63
:1069F000F3F3164C23600B4601EBD17400EB6404F7
:106A00004C43114D2D6B554394FBF5F4104D2C6008
:106A100015E00C4B1B68C11A0B4B9B6A91FBF3F3FF
:106A20000A4C23600B4601EBD17400EB64044C4329
:106A3000054DAD6A554394FBF5F4054D2C6030BD12
:106A4000B00100208C010020307D0020BC0100201E
:106A5000B80100201448006814490968884207DD1D
:106A60001148006811490968401A1149086006E098
:106A70000E4800680C490968401A0D4908600D4924
:106A8000086800EBD0710A4A1268B2EB610F06DDAC
:106A90000848006806490968401A05490860024824
:106AA00000680249086070477C010020CC0000208B
:106AB000800100203401002002460B4800680128B4
:106AC00008D18A4204DD09480068801A08447047EA
:106AD000881AFCE78A4201DB501AF8E7034800688D
:106AE000401A1044F3E7000010020020B00100201B
:106AF00000B589B07248006818B97248006800286B
:106B000030D07148006801282CD1704800686F4966
:106B100049680844C117CDE906016D480068C117EE
:106B20000B460246CDE904016AA003C8FBF70EFB41
:106B3000CDE90201DDE90623FBF708FBCDE9000101
:106B40006649086008460068002805DB644800685C
:106B500064490968884208D00020604908605A49A1
:106B6000086002E000205D4908605F48006819285D
:106B700008DA5A48006840F6B831884202DD002041
:106B8000564908604E48006818B94E480068002809
:106B900030D05648006801282CD155480068544927
:106BA00049680844C117CDE9060149480068C11782
:106BB0000B460246CDE9040146A003C8FBF7C6FA1E
:106BC000CDE90201DDE90623FBF7C0FACDE90001BA
:106BD0004849086008460068002805DB404800680E
:106BE00040490968884208D00020424908603F496E
:106BF000086002E000203F4908603B48006819280F
:106C000008DA3C48006840F6B831884202DD0020CE
:106C10003849086031490968364A1268881800EB1B
:106C2000D0714910344A116034483549096850F828
:106C300021003349091D0968081A3149091D0860F6
:106C4000084600681146096808442D49091D086076
:106C50001046016829482A4A126840F8221028483C
:106C60000068042805DA26480068401C24490860AA
:106C700002E00020224908602148001D0068801CB5
:106C8000052190FBF1F01F490860154800680128B4
:106C900004D1084600681C49086004E019480068EF
:106CA0004042194908601448006818490968484377
:106CB0001749096890FBF1F01649086009B000BD5A
:106CC0001802002028020020FC010020EC01002016
:106CD0003001002000F87D01010000007400002058
:106CE00010020020980100208001002000020020F6
:106CF000F401002078000020840100204C070020CF
:106D00009000002088010020E400002034010020D1
:106D1000B00100208C01002010B503460B4800682C
:106D20000B4C94FBF0F2012900DA012102FB03F085
:106D300090FBF1F0074C2468001BA0F1C802002A68
:106D400001DA002010BD1046FCE70000B001002071
:106D5000C0D4010090010020304800683049096823
:106D6000884255D02D4800682D490968884228DDA1
:106D70002C49086829490968294A1268891A00EBD0
:106D8000D072B1EB620F0DDD2748006800283FD0BC
:106D900000202549086025490860254908602549E3
:106DA000086035E020480068012831D001201E49E4
:106DB000086000201D4908601D4908601D490860E1
:106DC00026E01849086816490968144A1268891AA1
:106DD00000EBD072B1EB620F0EDD134800680128A2
:106DE00016D00120104908600020104908601049A1
:106DF0000860104908600BE00B48006840B10020B3
:106E0000094908600949086009490860094908609A
:106E10000248006802490860704700007C010020B9
:106E20008C0000203401002098010020FC0100208B
:106E3000000200200402002030B503460C46214623
:106E40001846FFF739FE05460649086800EBD07181
:106E5000B5EB610F03DB03480068281A30BD2846F4
:106E6000FCE70000B001002000200349086003494E
:106E70000860034908607047DC010020D801002049
:106E8000440200201848018840F60650814201DD86
:106E900000207047B1F5296F01DD0320F9E740F6C6
:106EA000D800814201DD0120F3E740F2F560814224
:106EB00001DD0620EDE7B1F5B56F01DD0220E8E761
:106EC00040F26540814201DD0420E2E740F21630E5
:106ED000814201DD0020DCE7B1F5997F01DB002074
:106EE000D7E74FF0FF30D4E77E02002010B52C48E2
:106EF00001682C480068FFF79FFF2B49086028486D
:106F000000682849086029480068012847D12848B6
:106F1000006825490968401A254908602548006825
:106F200010B101283AD12DE023480068FFF74EFD4B
:106F3000224800682249096801EB40001C490968A1
:106F400088421EDD1C48006890B91E4800681E4932
:106F500008601E48006C1E49086001201B49086437
:106F6000002000F0F1FE1A4800681849086403E0A8
:106F70001148006800F0E8FE0120164908600D493C
:106F800008600BE00A4800681E2806DA002009495C
:106F90000860064908600F49086000BF00BF10BDC7
:106FA000AC0100208000002084000020D8010020D7
:106FB000CC010020DC010020D001002028010020AD
:106FC000B8010020D401002024010020307D0020E1
:106FD000880000204402002030B5FE4800680028E8
:106FE0007ED0FD480068052845D2DFE800F0039711
:106FF000DB45F8000020F849091F0860F7480068E1
:10700000F7490968884236D00A20F34908390860F0
:10701000F348006880B9F348006801282BD10320A9
:1070200008310860F048006BEF49096D4843404261
:10703000E9490C3908601EE0EC48006803280AD1D1
:107040000120E5490860E848806AE749C96C48437F
:10705000E1490C390860E548006804280BD102209A
:10706000DD490860E048006BDF49096D4843404254
:10707000D9490C390860E4E0DB48406BDA49096B18
:1070800001EB41010844DA490968884203DCD5482C
:10709000006800283DD1D048001F006858BB01207F
:1070A000CD49091F0860002008390860002409E064
:1070B000D04951F8240000EBD0714910CD4A42F874
:1070C0002410641CC848C06FA042F1DCC2491039CA
:1070D000086800EBD0714910BF4A103A116000E017
:1070E000BDE00020111F0860C349086800EBD071A3
:1070F0004910C14A1160BD480068032803D0BB484D
:107100000068042809D10020B34908600C390860E0
:1071100003E00020B049091F086092E0B34800680E
:10712000032805D00020AC4908600C39086088E0CD
:10713000AD48806A00EB4000A9490968081AAF49C8
:107140000968884229DC0420A349086000200C3922
:107150000860002409E0A74951F8240000EBD07131
:107160004910A44A42F82410641C9F48C06FA042F2
:10717000F1DC99491039086800EBD0714910964A42
:10718000103A11600020111F08609B49086800EB4D
:10719000D0714910984A116053E000208E49091FB0
:1071A00008604EE091480068042805D000208A4914
:1071B00008600C39086044E08B48006B00EB40002D
:1071C0008749096808448D49096888422ADB0420F8
:1071D0008149086000200C39086000240AE026E09C
:1071E000844951F8240000EBD0714910814A42F8DB
:1071F0002410641C7C48C06FA042F1DC7649103931
:10720000086800EBD0714910734A103A11600020F1
:10721000111F08607849086800EBD0714910764A60
:1072200011600EE000206C49091F086009E06B48FE
:1072300000686B490968884202D1002066490860ED
:1072400000BF00BF644808380068012834DD624888
:1072500008380068401E6049083908602CE00020AA
:107260005D490860644908600A205B490839086084
:107270005D48806A5C49C96C484357490C390860CD
:10728000002406E054480C3800685A4941F82400AC
:10729000641C5548C06FA042F4DC5348C06F4E498F
:1072A0000C39096848434C49103908600020091F0F
:1072B00008600831086030BD484802684F480168DE
:1072C0004D48FEF717FE054643480C380068424912
:1072D0000839096890FBF1F00544B5F57A7F01DDC6
:1072E0004FF47A7515F57A7F00DA454D41483A49F1
:1072F0001439096850F82100374910390968081A0B
:107300003549103908600846006828440860394843
:10731000091F096840F821503348C06F401E2E49AC
:1073200014390968884207DD2B4814380068401C6E
:1073300029491439086003E00020274914390860FE
:107340002949C86F00EBD071234A103A126802EB4A
:107350006101254AD26F91FBF2F52A4800680128A5
:1073600002D12948056002E06842274908602748A1
:10737000006840F6B83188422ADA1848006800B23E
:107380002349224A126821F812001C48006801B201
:1073900020481E4A126820F812101F48006801B2E7
:1073A0001E481A4A126820F812101748006800B2E6
:1073B0001B49164A126821F8120000211948134A85
:1073C000126820F8121011480068401C0F4908602C
:1073D00071E7000018020020AC000020940100209A
:1073E0009001002070000020307D0020640000200B
:1073F0008C010020600700209C07002084010020F1
:1074000018FCFFFF10020020E0000020FC0000201C
:10741000F0070020601F0020AC010020D0360020C3
:10742000404E0020B065002010B5134800680928C0
:107430001FD2DFE800F00805090C0F1215181B0019
:1074400000F0CAF916E015E0FFF78CF812E000F042
:1074500059FE0FE0FFF750FA0CE000F0DDF909E00B
:1074600000F048FA06E000F0C1F803E000F098FBF5
:1074700000E000BF00BF10BD640000204B48006862
:10748000072829D2DFE800F028101C111D04050090
:1074900000BF4FF40070464908600220454908606B
:1074A00086204549086022E000BF4FF480704049C3
:1074B000086002203F49086043203F49086016E009
:1074C00000BF4FF480703A490860022039490860D3
:1074D0009120394908600AE04FF48070344908600F
:1074E00002203449086043203349086000BF00BFD0
:1074F0000020324908602E4800688000304908604A
:10750000084600682B49096890FBF1F02D49086096
:107510000868C11700EB917189102B4A1160294846
:1075200000680C2190FBF1F02849086025480068AC
:10753000062190FBF1F026490860224800684000CF
:10754000062190FBF1F0234908601E48006800EB1B
:107550004000062190FBF1F01F49086019480068BF
:107560008000062190FBF1F01C4908601548006876
:1075700000EB8000062190FBF1F0194908601048EB
:1075800000681849086009480068052802D00628E4
:1075900006D100E000BF4FF48B701349086003E090
:1075A00000201149086000BF00BF70472C01002077
:1075B0003001002038010020E8000020EC0000200D
:1075C000340100203C010020400100204401002043
:1075D000480100204C0100205001002054010020EF
:1075E00058010020B00100202001002010B5002427
:1075F00000206049086060480068022803DB002022
:107600005D49086000E010BD5C4801685C480068A6
:10761000FAF7B2FF04465B48006820B101283BD06E
:107620000A2838D183E0032C08DB5748006828B1CA
:10763000564800685649096888420CD000F084FC1E
:107640005448C0695049086000205349086001202F
:107650004C4908601FE04F498969504A126801FB94
:1076600002F0C11700EB916189114D4A116010467B
:107670000068FA2802DDFA201146086044480068D4
:1076800020B9474800684749086004E0444800685A
:107690004042444908606BE0002043490860434988
:1076A0000860434908603B48C06940B964203649D6
:1076B000086038484069C82148433E49486032481C
:1076C000006830B314F1020F07DD022C05DA002048
:1076D000384908603349086028E000226142354893
:1076E000FEF7D8FB2E49086008460068FA2801DD3D
:1076F000FA20086026480068012804D1284800685C
:107700002849086012E02648006840422549086080
:107710000CE000201B4908601E48406A18B1082090
:107720002549086002E001202349086020E019484B
:10773000C06940B964201449086016484069C821EE
:1077400048431C4948601048006818B16420154936
:1077500008600CE000200B4908600E48406A18B130
:1077600008201549086002E001201349086000BFA5
:1077700000BF48E768010020F0000020A8010020B9
:10778000AC0100209C0100206C0100209801002029
:1077900010020020307D00202802002084010020FB
:1077A000BC000020E0000020FC01002000020020BE
:1077B00004020020A80700206400002000200349E4
:1077C0000860034800680349086070472C020020E5
:1077D00034010020B001002000B50C48006810B151
:1077E000012810D10EE000F0AFFB0020FBF75EFE99
:1077F000002007490860012004490860002005496D
:10780000086000E000BF00BF00BD00009C01002038
:1078100014020020F400002010B52E48006830B19A
:10782000012815D002282CD0032851D13BE02A484A
:10783000406B2A49096848432949096890FBF1F0DF
:1078400028490860012023490860274908603FE073
:107850002148406B1E3025490968884210DB1E48CC
:10786000406B1E49096848431D49096890FBF1F0C7
:107870001C49086002201749086000201A49086066
:1078800026E01648006800EB00104FF4B47190FB3E
:10789000F1F421461648006800F056FC10B90320A8
:1078A0000C49086014E00D48006800EB40008000BF
:1078B0004FF4B47190FBF1F421460D48006800F0DC
:1078C00043FC20B100210A48006800F067FB00BFBC
:1078D00000BF10BD9C010020307D0020B0010020C1
:1078E0003401002094010020700000208C01002051
:1078F0002401002070B5002497480068052845D26F
:10790000DFE800F00345F5F3F2000020FFF75EF832
:1079100092480068012814D191480068914909688B
:10792000401A91490968441A02E0904800680444EA
:10793000002CFADB8D48006894FBF0F100FB114449
:107940000DE0874800688749096808448649096846
:1079500008448649096890FBF1F201FB12042146B4
:1079600083480068FFF7A8F8824908607D480068EE
:107970007D49096808447F49096808447D490860D1
:1079800001207549086000207B490860DEE07848E6
:1079900001687A480068FFF74FFA76490968081AC3
:1079A0007449086008460068002801DA0020086071
:1079B0006C4800686C49096808446E490968884247
:1079C0006ADB01206E4908606A48006866490968F8
:1079D000884245DD67490968634A1268881A69491F
:1079E0000968FFF799F96849086066480068401E11
:1079F000644908606548406B1E30654909688842E3
:107A00000ADA614800686349096888420FDD614805
:107A100000685D4908600AE05C48406B53490968AA
:107A200048435D49096890FBF1F0574908605748A1
:107A3000406B4E49096848435749096890FBF1F08B
:107A400051490968884227DD5048406B4749096819
:107A500048435149096890FBF1F04B4908601BE02D
:107A60000020474908604D48006870B94748406B9E
:107A70003E49096848434849096890FBF1F042498A
:107A8000086002203449086006E0444800683E4926
