:020000040800F2
:10000000D881002045210008000000000000000009
:1000100000000000000000000000000000000000E0
:1000200000000000000000000000000000000000D0
:1000300000000000000000000000000000000000C0
:1000400000000000000000000000000000000000B0
:10200000D881002045210008A94A000801330008B2
:10201000A54A0008FB210008979600080000000070
:10202000000000000000000000000000CD82000859
:10203000DD28000800000000495F00080D87000847
:10204000ED960008095F0008898800085B620008B7
:10205000FD2D0008C5610008E12800088529000859
:10206000112A0008252A0008C12A00082526000890
:1020700029260008D9260008F5260008F7260008BA
:10208000F9260008FB260008D122000893960008D4
:1020900095960008FF21000811250008392B00083B
:1020A000DF880008F3880008F1880008E18800084C
:1020B000F588000841890008318A000807330008C4
:1020C000053300080B33000809330008C5810008F8
:1020D000DD81000811900008699200086D920008E7
:1020E0006D2900085962000891960008258B0008A8
:1020F0002B8B0008298B0008278B0008E72100089C
:10210000C52E0008C18100086D8A0008DF81000823
:10211000B38F0008B58F0008A98A0008CD8A00088F
:10212000FD260008FF2600080127000803270008F5
:10213000DFF80CD000F09CF80048004799980008A0
:10214000D881002000480047312100082DE9F047E0
:10215000002591469A46074688462E46402418E0B8
:1021600022464146384600F073F8B0EB090071EBA7
:102170000A010ED322465146484600F059F83F1A4C
:1021800068EB010822460021012000F051F84519B2
:102190004E41201EA4F10104E2DC284631463A46B5
:1021A0004346BDE8F08740EA01039B070AD102E0FD
:1021B00008C9121F08C0042AFAD203E011F8013B33
:1021C00000F8013B521EF9D2704710B5002200E022
:1021D000521C835C8C5CA34201D1002BF8D1805C43
:1021E000895C401A10BD7047C9430160704782681E
:1021F00022F4E0420A438260704700BFFEE7704766
:10220000FFFFFFFF30B50B460146002020220124CE
:1022100009E021FA02F59D4205D303FA02F5491BB4
:1022200004FA02F52844151EA2F10102F1DC30BDCA
:10223000202A04DB0023203A00FA02F106E000FA2B
:1022400002F39140C2F12002D0400143184670478A
:10225000202A04DB203A21FA02F000217047D04006
:10226000C2F1200301FA03F31843D1407047000084
:10227000064C074D06E0E06840F0010394E80700D3
:1022800098471034AC42F6D3FFF756FF60AC000815
:1022900080AC000830B58C1810F8013B13F00F0229
:1022A00001D110F8012B1B0906D110F8013B03E006
:1022B00010F8015B01F8015B521EF9D101E001F851
:1022C000012B5B1EFBD1A142E6D3002030BD0000F4
:1022D00010B505F0FDFF04210348FFF785FF042139
:1022E0000248FFF781FF10BD002401400028014093
:1022F0000029816802D041F0010101E021F00101D3
:10230000816070470029816802D041F4807101E04A
:1023100021F48071816070470D4910B5401811D0CB
:102320004FF48064A04210D0B0F5C05F0FD10121FE
:10233000CC03204603F05CFE2046BDE8104000219F
:1023400003F056BE01214C02F3E70121F1E710BD75
:1023500000DCFEBF0029816802D041F4004101E0A9
:1023600021F40041816070470146896800204907D7
:1023700000D5012070470246126800200A4200D0B2
:10238000012070470844806A80B27047014689681E
:102390000020090700D501207047002A4268C9B211
:1023A00001D00A4300E08A434260704730B542687A
:1023B0000E4B0C791A400B6842EA04221343436027
:1023C00082680B4B4D791A40D1E9024342EA45023B
:1023D000234313438360C26A097C22F47002491EBE
:1023E000C9B242EA0151C16230BD0000FFFEF0FFF8
:1023F000FDF7F1FF70B5072609290AD9C568A1F1D3
:102400000A0404EB4404A640B543A3401D43C56041
:1024100007E0056901EB4104A640B543A3401D4315
:102420000561836BC3F30154121B921C02EB820201
:102430001F249440A34391400B43836370BD826B80
:10244000491E22F4401242EA01518163704770B57F
:10245000072609290AD9C568A1F10A0404EB440436
:10246000A640B543A3401D43C56007E0056901EBE5
:102470004104A640B543A3401D4305611F23072A1D
:1024800009D2446B521E02EB820293409C4391405E
:102490000C43446370BD0D2A09D2046BD21F02EBBA
:1024A000820293409C4391400C43046370BDC46A14
:1024B0000D3A02EB820293409C4391400C43C4626C
:1024C00070BD816841F00801816070470029816812
:1024D00002D041F4A00101E021F4A0018160704725
:1024E0000029816802D041F4021101E021F40211B7
:1024F00081607047816841F004018160704700216C
:102500000160017141718160C160012101747047F6
:102510007047000010B50022044B03E050F8224041
:102520001C60521C8A42F9D3186810BD003002406A
:1025300001490120886070470030024030B50246F2
:102540004FF6FF7013E0031243EA002412F8015B18
:102550006C40A0B2C0F303135840C3B21B1243EA4D
:1025600000231B01C4B283EA4413434098B20B001A
:10257000A1F10101E7D130BD30B503460C4621463B
:10258000184604F053FA05460849086800EBD07174
:10259000B5EB610F02DD054800682D1AA80203495A
:1025A000096890FBF1F5284630BD0000B00100201D
:1025B000F0B518480068184F3F88A0EB070117488E
:1025C0000068174F3F88A0EB0702C1F10000A0EBA5
:1025D0000203002901DB084600E048420446002AC5
:1025E00001DB104600E050420546002B01DB184697
:1025F00000E058420646AC4205DDB44201DD20460B
:10260000F0BD3046FCE7B54201DD2846F8E730462C
:10261000F6E700003C2401405C0200203C28014019
:102620005E0200207047000070B50022012123489F
:1026300005F0EAFD00220221204805F0E5FD002119
:102640001E4805F0D7FD00211D4800F065F8002167
:102650001B48143000F060F8202000F053F80A21E5
:102660001848FFF76BFF05461648408980B2A8421C
:1026700014D1002407E0134830F81400124921F85F
:102680001400601C84B2052CF5DB01200F490860A2
:102690000F480068401C0E49086008E04FF0FF300A
:1026A0000A4908600B480068401C0A490860062077
:1026B00003491C390862486370BD000000300140C6
:1026C0001C000240C8070020BC07002010010020A9
:1026D000080100200C01002010B50022022104484E
:1026E00005F092FD4FF4007000F00CF810BD0000F2
:1026F000003001407047704770477047704770471F
:10270000704770470349C20002D5C1F804047047FE
:1027100048607047000002400029016802D041F083
:10272000010101E021F00101016070470268002110
:1027300022F001020260016041608160C160304BA3
:102740002F49C21A8039984245D018DC2D4BA0EB96
:102750000302984237D00ADC2B4A80182BD0142869
:102760002DD0282826D1486840F4706036E0142A1D
:102770002DD0282A1ED1486840F470002EE0B2F512
:102780006C7F32D00ADCB2F5627F29D0B2F5677F68
:1027900010D1D1F8040440F0F00009E0B2F5717FE7
:1027A00028D0B2F5767F05D1D1F8040440F470202A
:1027B000C1F804047047486840F00F000EE0486814
:1027C00040F0F0000AE0486840F4704006E04868D5
:1027D00040F4702002E0486840F070604860704744
:1027E000D1F8040440F00F00E2E7D1F8040440F40B
:1027F0007060DDE7D1F8040440F47040D8E70000D1
:102800008000024044000240F8FFFDBF002A026839
:1028100001D00A4300E08A430260704770B5026845
:1028200047F6F0739A430E6A8B680C693343D1E91B
:1028300005562C432343CC6933432343D1E9095440
:102840002B43234313430360CA6842600A688260D3
:102850004968C16070BD70B505460C46FFF768FE5B
:1028600014F0030F04D0A1082846FFF753FE70BDF3
:102870000120C0EB94012846FFF74CFEF7E700006B
:1028800010B51048A0F18001401A48600E480F4969
:1028900008600BE00D48006840690C490968096848
:1028A00008600A480068183008490860074800684E
:1028B00007498842EED307A102481C3806F018FFEA
:1028C00010BD0000AC7D0020489E00088002002062
:1028D000C8A20008513230310000000070470000EB
:1028E00010B5012000F0F6F90021184806F02FF984
:1028F00017480068012817D116480088164909684A
:1029000008441649D1F8081801F00101144A42F8A8
:1029100021004FF000000F4908800F4908604FF078
:102920000100104908600CE00F480D49086048603C
:10293000002008490880084908604FF00100044958
:1029400008600121014806F002F910BD00080040AE
:10295000FC01002024080040E401002000000140A8
:10296000EC0100200402002040420F0010B54FF49B
:10297000805000F0AFF901200149086010BD00004F
:102980000001002010B5022000F0A4F90021184831
:1029900006F0DDF817480068012817D116480088AE
:1029A0001649096808441649D1F80818C1F34001CE
:1029B000144A42F821004FF000000F4908800F49E7
:1029C00008604FF00200104908600CE00F480D4904
:1029D00008604860002008490880084908604FF0F6
:1029E0000100044908600121014806F0B0F810BD5B
:1029F000000C004000020020240C0040E8010020F0
:102A000000000140F40100200402002040420F00B9
:102A100010B5042000F064F910B1042000F05AF958
:102A200010BD000010B5082000F05AF9002831D080
:102A3000082000F04FF91848006800B110BD0020D0
:102A40004FF08041888415480068A0B94FF4FA60BF
:102A5000134908801349A1F8380C134908804FF036
:102A60000101124806F073F80121104806F07AF8C7
:102A700001200A4908600E48006828B90D4800681E
:102A800010B900200C4908800C48006810B90120DA
:102A90000A490860D2E700001C0200204C02002016
:102AA000342C0140002001403C2C0140002C01400E
:102AB0002C020020340200202404004020020020C8
:102AC00010B5102000F00CF960B3102000F002F9EE
:102AD00000211548FFF720FE002113481430FFF7AE
:102AE0001BFE062010491C39086210488862062027
:102AF00048630F48C86301210B48FFF70DFE012111
:102B000009481430FFF708FE01220221094805F0A8
:102B10007BFB01221146074805F076FB01210548A1
:102B200005F068FB10BD00001C000240C807002033
:102B3000B20700200030014010B500244FF480702F
:102B400000F0CEF8002820D04FF4807000F0C2F8DA
:102B50005848008810F0100F55D04FF48071564837
:102B600000F0C4FA0028EED05448006870B9012083
:102B700052490860002052490860091D0860514907
:102B800008804FF42F605049086091E04D4800885C
:102B9000B0F5004F06DD4B4800884FF6FF71A1EB02
:102BA000000401E04748048848480068012819D11A
:102BB0004348001D006820444149091D0860081F62
:102BC0000068401C091F086008460068032809D1F6
:102BD000081D0068032190FBF1F03D4908600020CA
:102BE0003A4908603A49086800EBD071642202EB68
:102BF0006101A1425CDA0020324908804FF42F6065
:102C00003149086054E04FF480712B4800F06EFAAF
:102C100000284DD12948006870B901202749086073
:102C2000002027490860091D0860264908804FF4E4
:102C30002F60254908603BE022480088B0F5004F2E
:102C400006DD204800884FF6FF71A1EB000401E08B
:102C50001C4804881D480068012819D11848001D27
:102C6000006820441649091D0860081F0068401CC0
:102C7000091F086008460068032809D1081D00687C
:102C8000032190FBF1F01249086000200F49086011
:102C90000F49086800EBD071642202EB6101A14288
:102CA00006DA0020074908804FF42F6006490860C3
:102CB00010BD000000040040001001403802002058
:102CC0003400002024040040C4010020340200200D
:102CD000B001002001490860704700001404014061
:102CE000054B01461A6800205B690A400B4202D07E
:102CF000002A00D0012070470004014010B58379FC
:102D000020490268A3B3D1F800349343C1F80034DA
:102D1000D1F8042403689A43C1F8042402790468B2
:102D20000A44D2F800342343C2F80034D1F808240E
:102D300003689A43C1F80824D1F80C2403689A4325
:102D4000C1F80C244279102A0AD101F581610A6880
:102D500003681A430A604A68006802434A6010BD6B
:102D60001144D1F8002400680243C1F8002410BDCA
:102D7000FFE700790844D0F800149143C0F800142C
:102D8000F5E70000000001400149C86070470000FD
:102D90000020024070B5054640F6FF76304600F050
:102DA0007DF8042813D10A4C206940F0020020610C
:102DB0006561206940F040002061304600F06EF807
:102DC000012804D0216941F6FD721140216170BDD6
:102DD0000020024008490420CA68D20701D001201F
:102DE0007047CA68520701D502207047C968C906F2
:102DF000FBD5032070470000002002407047000010
:102E00000248016941F080010161704700200240E1
:102E100004490A6822F010020A600A6802430A6044
:102E20007047000000200240F0B505460E460F2016
:102E300000F034F8042816D10B4C206940F0010052
:102E400020612E800F2000F029F841F6FE7704283B
:102E500004D1300C68800F2000F020F8012802D047
:102E6000216939402161F0BD0020024004490A680F
:102E700002F038020A600A6802430A6070470000E4
:102E80000020024003480249416003494160704705
:102E90002301674500200240AB89EFCD00B5034612
:102EA000FFF798FF05E0FF20401EFDD1FFF792FFDE
:102EB0005B1E012802D1002BF5D101E0002B00D1CF
:102EC000052000BD7047000010B50D48A0F180013D
:102ED000401A486008464168001DFFF7BCFC0849DD
:102EE00080390860074A84210548803800F017F8C7
:102EF0000446012C01D1002010BD4FF0FF30FBE74C
:102F0000AC7D002000F8070810B503E010F8013B85
:102F100001F8013B1300A2F10102F7D110BD2DE928
:102F2000FC5F04460D4616460027A04601964FF06A
:102F3000010B0420009015F0030F0AD0A80804EB41
:102F4000800000F10409A80806EB800000F1040AE3
:102F500005E0A80804EB8009A80806EB800AFFF743
:102F600091FF3520FFF710FF07E00198FFF712FFF0
:102F70000090019800F5006001900198504502D240
:102F800000980428F1D00098042822D1019607E087
:102F900002CC019A131D10460193FFF745FF0090E4
:102FA0004C4502D200980428F2D00098042810D191
:102FB000019609E058F8041B019804C80190914259
:102FC00002D04FF0000B01E0C845F3D300BF4FFA29
:102FD0008BF7FFF715FF3846BDE8FC9F10B58A0751
:102FE00021F003040649120F21440F238C689340FB
:102FF0009C438C608B68904003438B6010BD000045
:1030000000000140F0B5CB780022DC0603F00F038E
:1030100001D58C7823430C880F2714F0FF0F4FF055
:10302000010C1CD0D0F800500E880CFA02F4264097
:10303000A64210D1960007FA06FE25EA0E0E03FA04
:1030400006F5CE7845EA0E05282E00D14461CE78EB
:10305000482E00D10461521C082AE5D305600A8875
:10306000FF2A1ED94568002202F108060CFA06F470
:103070000E882640A64210D1960007FA06FE25EAE1
:103080000E0E03FA06F5CE7845EA0E05282E00D17D
:103090004461CE78482E00D10461521C082AE3D343
:1030A0004560F0BDF0B5104D6B68440D260184B24B
:1030B000C0F30157B440C0F30342032F06D1686840
:1030C00023F0706220F07060686008E0C00203D5F1
:1030D00003209040834300E0A34343F0706201B1BA
:1030E00022436A60F0BD0000000001400246926881
:1030F00000200A4200D0012070474FF6FF71018086
:10310000022181700421C170704700001CB54FF48A
:10311000A06001F01FFD25208DF8000003208DF830
:10312000010002208DF8020001208DF8030068469E
:1031300001F0D6FC012144F2080002F04DFF01210C
:103140000420FFF7AFFF8020ADF8040048208DF881
:10315000070001A90848FFF755FF4020ADF804001B
:1031600003208DF8060018208DF8070001A90248F9
:10317000FFF748FF1CBD0000000C01401CB54FF4D8
:10318000A06001F0E7FC27208DF8000003208DF8F7
:1031900001008DF8020001208DF80300684601F05F
:1031A0009FFC01210E4802F0FFFE4FF40060ADF8D5
:1031B000040004208DF8070001A90A48FFF722FF48
:1031C0004FF48060ADF8040003208DF8060018204D
:1031D0008DF8070001A90348FFF714FF1CBD00008C
:1031E00008000400000C01400AB101617047416110
:1031F00070470246002003E04B1ED35C5840491E36
:103200000029F9D17047000000201B490968B02946
:1032100028D00CDC47291DD004DC442916D04629CF
:1032200028D115E04A2917D0AF2923D118E0DF298A
:103230000AD004DCC8291BD0DE291BD10EE0E62908
:1032400012D0E72916D111E0302013E0522011E00E
:1032500056200FE058200DE055200BE0702009E0CB
:10326000802007E0812005E0822003E0832001E048
:10327000842000BF00BF70475C01002070B50024AF
:1032800015480068082801D144F00104124800687C
:10329000072801D144F0020410480068012801D138
:1032A00044F004040C480068032801D144F00804E9
:1032B0000B4800683C2190FBF1F52946094800685D
:1032C00004F0FCFE08B144F010040748006808B997
:1032D00044F06004204670BD640000201802002005
:1032E000B0010020240100209801002000200349A3
:1032F0000968012901D140F0020070474C0200200A
:1033000000BFFEE7704770477047704770B50125F2
:103310004E48006830B1012821D002285AD0032835
:103320001CD182E00120494908604948806800F4C6
:103330008070091D08600846006840B145494C6B23
:1033400004EBD4714910484204F0B8FC06E041484F
:10335000446B04EBD471481004F0B0FC72E03C48BC
:10336000806800F480703949091D096888421DD0C1
:103370000220364908600A2037490860334808307F
:1033800001680068401C314A0832106002290DDDD6
:103390003248006810B9B0203049086000202B493D
:1033A0000860002501F0C8FC01F0EAFC2C48006828
:1033B00001280ED12B48006820B10021084604F0F6
:1033C000A7FD03E00121002004F0A2FD03201F4916
:1033D000086037E02048006898B92348006880B941
:1033E00000201A4908601F48006828B100211F48C2
:1033F000006804F08DFD04E001211C48006804F021
:1034000087FD1748006801280ED11648006820B1D2
:103410000021084604F07CFD03E00121002004F0B7
:1034200077FD0320094908600CE01148006807286F
:1034300007D001F081FC01F0A3FC002003490860E3
:10344000002500BF00BF284670BD0000D00000204E
:10345000001001402C7D0020780100205C0100203C
:103460004C020020180200201C020020AC010020A9
:103470006400002001460448006848434FF4B472D9
:1034800090FBF2F070470000B001002001464FF4BD
:10349000B4704843024A126890FBF2F07047000093
:1034A000B001002010B90021054A11600549C96822
:1034B0000902034A5160034909699160704700009D
:1034C000980700202C7D0020002005490860054851
:1034D0004069C8214843024948600220886070471B
:1034E000A40700202C7D002000B5164800680228A3
:1034F00002D0042812D100E000BF00234FF4C872AC
:103500004FF46151104802F09DFF00234FF4C87240
:103510004FF461510D4802F095FF10E000234FF485
:10352000C87243F2D401084802F08CFF00234FF424
:10353000C87243F2D401054802F084FF00BF00BF07
:1035400000BD00002C010020B07D0020C47D0020C3
:1035500010B588B00121480202F03EFD0121880229
:1035600002F03AFD4FF4004002F008FD0620ADF8ED
:103570001C0000208DF81F0007A96948FFF742FDD5
:103580006848FEF7C9FE6848FEF7C6FE0121654897
:10359000FEF7AEFE01216448FEF7AAFE02A8FEF780
:1035A000AEFF4FF4A020029001208DF80C00002007
:1035B0008DF80D004FF4602004900020059001204C
:1035C0008DF8180002A95748FEF7F0FE02A8FEF792
:1035D00096FF01208DF80C0000208DF80D004FF4AF
:1035E000602004900020059001208DF8180002A9A9
:1035F0004D48FEF7DBFE4B48FEF77CFF4A48FEF7DE
:1036000079FF00BF4748FEF7AFFE04464648FEF785
:10361000ABFE0442F6D101214248FEF710FF012122
:103620004148FEF70CFF00224FF490613D48FEF741
:10363000B4FE00224FF490613B48FEF7AEFE00203E
:103640003A4908803A4908804FF4E0413548FEF78E
:10365000CEFD01213348FEF77DFE4FF4E0413248B4
:10366000FEF7C5FD01213048FEF774FE01231A461E
:103670000B212C48FEF7BEFE01231A460C212A48D6
:10368000FEF7B8FE04212748FEF7AEFD04212648C8
:10369000FEF7AAFD01212348FEF722FF012122485F
:1036A000FEF71EFF00BF04211E48FEF764FE28B986
:1036B00004211D48FEF75FFE0028F4D014211948AC
:1036C000FEF760FE1949088014211748FEF75AFEDC
:1036D0001749088000211348FEF789FD0021124890
:1036E000FEF785FD01224FF490610E48FEF755FE6E
:1036F00001224FF490610C48FEF74FFE12208DF826
:10370000040002208DF8050000208DF8060001203D
:103710008DF8070001A801F0E3F908B010BD000022
:103720000010014000240140002801405C020020FC
:103730005E02002000B591B00121022002F028FCB9
:103740000121C80302F048FC4FF4004002F016FCCF
:103750000120ADF8140000208DF8170005A93348AA
:10376000FFF750FC3248FEF7E1FF3248069032483E
:103770000790002008900120099000200A900B90EB
:103780004FF480700C9080000D9020200E9000026D
:103790000F900020109006A92548FFF73FF801215F
:1037A0002348FEF7B9FF0020009001208DF80400A7
:1037B0008DF805004FF46020029000200390012056
:1037C0008DF8100069461B484C38FEF7EFFD0523C5
:1037D00001220A2117484C38FEF739FE012115480D
:1037E0004C38FEF78FFD012112484C38FEF780FD62
:1037F00010484C38FEF765FE00BF0E484C38FEF707
:10380000C5FD0028F9D10B484C38FEF773FE00BF08
:1038100008484C38FEF7A8FD0028F9D101210548D9
:103820004C38FEF753FE11B000BD000000100140FF
:10383000580402404C3C01407A0200200EB50021A1
:103840000846FFF7CBFB0120FFF744FA0120009068
:1038500000208DF8040010208DF8050001208DF85F
:1038600006006846FFF74AFA4FF4A06001F072F9CB
:1038700006208DF8080000208DF8090001208DF841
:103880000A008DF80B0002A801F02AF90EBD000015
:103890001FB54FF48050ADF8000004208DF80300F0
:1038A00069461648FFF7AEFB0C210120FFF796FB97
:1038B0004FF48050019000208DF808000C208DF806
:1038C000090001208DF80A0001A8FFF717FA4FF44C
:1038D000A06001F03FF928208DF80C0002208DF83F
:1038E0000D0001208DF80E008DF80F0003A801F0E7
:1038F000F7F84FF48050FFF7EDF91FBD000C0140C1
:103900000EB501210020FFF769FB0220FFF7E2F965
:103910000220009000208DF8040010208DF8050092
:1039200001208DF806006846FFF7E8F94FF4A06023
:1039300001F010F907208DF8080000208DF809002B
:1039400001208DF80A008DF80B0002A801F0C8F8DC
:103950000EBD0EB503210020FFF740FB0820FFF746
:10396000B9F90820009000208DF804000C208DF893
:10397000050001208DF806006846FFF7BFF94FF4F7
:10398000A06001F0E7F809208DF8080001208DF80B
:1039900009008DF80A008DF80B0002A801F0A0F8CC
:1039A0000EBD00001FB51020ADF8000004208DF8FA
:1039B000030069461548FFF725FB04210020FFF7A7
:1039C0000DFB1020019000208DF808000C208DF8D0
:1039D000090001208DF80A0001A8FFF78FF94FF4C4
:1039E000A06001F0B7F80A208DF80C0001208DF8D6
:1039F0000D0003208DF80E0001208DF80F0003A8A4
:103A000001F06EF81020FFF765F91FBD00080140B6
:103A10000EB508210220FFF7E1FA4FF48070FFF79E
:103A200059F94FF48070009000208DF804001020A8
:103A30008DF8050001208DF806006846FFF75EF955
:103A40004FF4A06001F086F817208DF808000220DE
:103A50008DF809008DF80A0001208DF80B0002A8EE
:103A600001F03EF80EBD000038B542F2107401219D
:103A7000102002F0B1FA6846FFF73FFB1020ADF8C6
:103A800000008DF8030003208DF802006946074806
:103A9000FFF7B8FA0548C06840F010000349C86055
:103AA00000BF2000A4F10104FBD138BD001001408B
:103AB00008B50121042002F08FFA6846FFF71DFBCC
:103AC0004FF40060ADF8000010208DF803000320D3
:103AD0008DF8020069460248FFF794FA08BD00001D
:103AE0000008014008B50121042002F075FA68467B
:103AF000FFF703FB4FF48050ADF8000010208DF865
:103B0000030003208DF8020069460248FFF77AFAA5
:103B100008BD00000008014008B50121042002F0A2
:103B20005BFA6846FFF7E9FA0420ADF800008DF86B
:103B3000030003208DF8020069460248FFF762FA8D
:103B400008BD00000008014008B50121102002F066
:103B500043FA6846FFF7D1FA4FF40050ADF8000081
:103B600010208DF8030003208DF8020069460248FA
:103B7000FFF748FA08BD00000010014008B5012118
:103B8000102002F029FA6846FFF7B7FA4FF4804098
:103B9000ADF8000004208DF8030003208DF802002A
:103BA00069460248FFF72EFA08BD000000100140E8
:103BB00008B50121102002F00FFA6846FFF79DFAC0
:103BC0004FF40040ADF8000010208DF803000320F2
:103BD0008DF8020069460248FFF714FA08BD00009C
:103BE0000010014008B50121102002F0F5F96846E7
:103BF000FFF783FA2020ADF8000010208DF80300B5
:103C000003208DF8020069460448FFF7FBF90348DA
:103C1000C06840F020000149C86008BD00100140A4
:103C200008B50121102002F0D7F96846FFF765FAC0
:103C30004FF48070ADF8000004208DF803000320DD
:103C40008DF8020069460248FFF7DCF908BD000064
:103C50000010014000B593B000214FF4A06002F0C5
:103C600097F9012141F2050002F0B6F90121084659
:103C700002F08EF9B020ADF8480004208DF84B001A
:103C800012A95648FFF7BEF94020ADF848001820A9
:103C90008DF84B0003208DF84A0012A94F48FFF71A
:103CA000B1F94F4804F0B8FA0020ADF83000ADF893
:103CB00032004FF40060ADF834000020ADF836005B
:103CC0000120ADF838000020ADF83A002020ADF812
:103CD0003C008020ADF83E000720ADF840000CA964
:103CE0003F4804F0D7FA00213D4804F079FA4FF438
:103CF000A06000F02FFF0C208DF8440001208DF80B
:103D0000450000208DF8460001208DF8470011A8DD
:103D100000F0E6FE0D208DF8440001208DF84500EE
:103D200003208DF8460001208DF8470011A800F00F
:103D3000D7FE2C48FEF7FAFC29480C3001902A489F
:103D4000029000200390062004900020059080201F
:103D500006904000079080000890002009904FF4E2
:103D600000500A9000200B9001A91E48FEF756FD56
:103D70001C481430FEF7DAFC19480C3001901B483F
:103D800002901020039000200A9001A915481430D9
:103D9000FEF744FD01220221114804F035FA012208
:103DA00011460F4804F030FA012202210D48FEF7B7
:103DB0002DFD012202210B481430FEF727FD0021C2
:103DC0000848FEF7A9FC002106481430FEF7A4FCC1
:103DD0000021034804F00EFA13B000BD00080140B2
:103DE000003001401C000240C8070020B20700203C
:103DF00010B5042004F01AFD074804F041FD01202D
:103E000004F020FD00220321044800F0B7FE012049
:103E100004F02AFD10BD0000401901009AC3020001
:103E200000B589B001210D2002F0D6F80121C802A9
:103E300002F0D2F8394804F0A1FE06A805F0B0F867
:103E40000020ADF818002020ADF81A004FF47A6079
:103E5000ADF81C004FF48070ADF81E0001208DF805
:103E6000200006A92D4805F07DF802A805F03EF8CF
:103E70006020ADF808000120ADF80A000420ADF87C
:103E80000C0040F20550ADF80E000020ADF8100017
:103E9000ADF81200ADF81400ADF8160002A91F48E5
:103EA00004F04AFF40F20550ADF80E0002A91B488D
:103EB00004F072FF40F20550ADF80E0002A9174859
:103EC00004F0A8FF01A8FFF718F94FF4E060ADF87F
:103ED000040018208DF8070003208DF8060001A9C2
:103EE0000F48FFF78FF801A8FFF707F94FF460407C
:103EF000ADF8040018208DF8070003208DF80600A7
:103F000001A90848FFF77EF82021044804F0F8FFD3
:103F10000121024804F01BFE09B000BD002C014045
:103F200000080140000C014000B58DB00121084699
:103F300002F03AF80121042002F04EF80CA8FFF735
:103F4000DCF80320ADF8300004208DF833000CA914
:103F50003548FFF757F84FF4A06000F0FBFD1C2038
:103F60008DF82C0001208DF82D0002208DF82E00F8
:103F700001208DF82F000BA800F0B2FD4FF080401B
:103F800004F0FCFD05A805F00BF80020ADF81400C6
:103F9000264800688000401E80B2ADF8180000205E
:103FA000ADF81A00ADF8160005A94FF0804004F0F6
:103FB000D9FF08A804F0AFFE0820ADF8280008A932
:103FC000C00604F057FE0420ADF8200008A9000741
:103FD00004F050FE0020ADF80400ADF80600022009
:103FE000ADF80C0040F20550ADF80A0001A98007B9
:103FF00004F010FF01A94FF0804004F047FF0023B8
:104000001A4603214FF0804004F012FE00204FF0CA
:10401000804188840121880704F093FD01218807ED
:1040200004F095FD0DB000BD0008014030010020F6
:1040300000B58DB00121022001F0B6FF0121102052
:1040400001F0CAFF01213B48FFF72CF80CA8FFF74D
:1040500054F8C020ADF8300004208DF833000CA9CE
:104060003548FEF7CFFF4FF4A06000F073FD1D2030
:104070008DF82C0002208DF82D0003208DF82E00E5
:1040800001208DF82F000BA800F02AFD2B4804F02A
:1040900075FD05A804F084FF0020ADF814004FF66C
:1040A000FF70ADF818000020ADF81A00ADF816004A
:1040B00005A9224804F056FF08A804F02CFE0820A9
:1040C000ADF8280008A91D4804F0D4FD0420ADF87F
:1040D000200008A9194804F0CDFD0020ADF8040027
:1040E000ADF806000220ADF80C0040F20550ADF826
:1040F0000A0001A9114804F08DFE01A90F4804F03F
:10410000C5FE00231A4603210C4804F091FD00204F
:104110000B4908804FF00101084804F012FD01220C
:104120001146064804F0FFFD0121044804F00FFD8C
:104130000DB000BD000C1A0000100140000400404A
:10414000240400401FB50121042001F02DFF19486F
:1041500004F014FD4FF6FF70ADF808000020ADF834
:104160000400ADF80A00ADF8060001A9114804F0FA
:10417000F9FE4FF4A06000F0EDFC1E208DF8000069
:1041800000208DF801008DF8020001208DF8030059
:10419000684600F0A5FC4EF66021064804F0B8FE23
:1041A00001220221034804F0BEFD0121014804F070
:1041B000CEFC1FBD000800401FB50121082001F002
:1041C000F3FE194804F0DAFC4FF6FF70ADF8080072
:1041D0000020ADF80400ADF80A00ADF8060001A912
:1041E000114804F0BFFE4FF4A06000F0B3FC322091
:1041F0008DF8000000208DF801008DF802000120EC
:104200008DF80300684600F06BFC4EF6602106480E
:1042100004F07EFE01220221034804F084FD012106
:10422000014804F094FC1FBD000C00401FB50121A3
:10423000202001F0B9FE194804F0A0FC4FF4A04082
:10424000ADF808000120ADF804000020ADF80A0028
:10425000ADF8060001A9114804F084FE4FF4A060F7
:1042600000F078FC37208DF8000000208DF8010068
:104270008DF8020001208DF80300684600F030FC44
:104280000121064804F05DFC01221146034804F0B8
:104290004AFD0021014804F05AFC1FBD00140040F3
:1042A000014610480068401E884202DA0D48006846
:1042B000411E0D48C06B012808D10C4800684843D6
:1042C000084A1268521E90FBF2F0704707480068D7
:1042D0004843044A1268521E90FBF2F0034A1268E7
:1042E000101AF2E7B00100202C7D00208802002087
:1042F0002DE9F041FB48B0F900000D286FD2DFE84E
:1043000000F06E0721C5FEFDFCFBFAF9F8F7F60098
:10431000F449B1F9020003F0D1FC0120F249088010
:1043200002F00AF800B2F0494880F048006800B294
:104330008880EF48006800B2C880EE48006800B28C
:104340000881DFE2E748B0F90200EB490860E54880
:10435000B0F90600E9490860E249B1F90400FFF745
:1043600089F8E7490860E748006818B1002003F0C1
:10437000A5FC76E0E048006803280DD1E24800681B
:10438000012806D10020DE4908600220DA490860D1
:1043900002E00120DD490860D748006802282AD1E0
:1043A000DB4807680246D2F800804FEAE87208EB63
:1043B0009272D34B1B6803EBA200FA1707EB9272C1
:1043C000911003F07BFE58B1D248C06B012802D196
:1043D000C94908600FE00020C74908600BE072E29D
:1043E000CC48C06B012803D10020C349086002E01B
:1043F0000120C1490860C048006810B101282FD1D0
:1044000016E0C448C06BC4490860BD480068C34991
:104410000860BB480168B748006802F007FB074620
:10442000002103F061FDB548006803F047FC17E088
:10443000B848C06BB8490860B1480068B74908601F
:10444000AC480168AE48006802F0F0FA0746002167
:1044500003F04AFDA9480068404203F02FFC00BF6A
:1044600000BF0220A049088001F066FF00B29E490B
:1044700048809E48006800B288809D48006800B26D
:10448000C8809C48006800B208813BE29548B0F9BA
:1044900004009449498800EB0140A149086008469E
:1044A000006810B902F09AFC6EE08E49B1F908007C
:1044B000FEF7E0FF99490860994800684FF4B4712D
:1044C00090FBF1F09249096800FB01F49448006800
:1044D0004FF4B47190FBF1F201FB120090490860B7
:1044E0008B480068096848434FF4B47108E0CFE195
:1044F00072E163E14CE1D9E0BCE0A6E070E058E095
:1045000090FBF1F086490860084600680444814841
:10451000C06B01280AD177480068096808447C49C3
:10452000096890FBF1F201FB12060DE0714800688A
:104530007749096808447A490968401A7449096842
:1045400090FBF1F201FB120674480168304602F05C
:104550006DFA734908606E49086800EBD071704AC3
:104560001268B2EB610F06DD694800686C490968A2
:10457000401A241A02E06A48006804445948B0F915
:104580000610204603F0B0FC03205749088001F0D4
:10459000D3FE00B2544948805448006800B2888075
:1045A0005348006800B2C8805248006800B20881D1
:1045B000A8E15C480068FEF769FF054604204A4907
:1045C000088001F0B9FE00B24749488047480068BA
:1045D00000B28880281400B2C88028B2088191E116
:1045E0004048B0F90200401C02D103F0A1F817E0E6
:1045F0003C48408888B13B48808870B13948B0F960
:1046000002004949096848433649B1F9041090FB52
:10461000F1F7384603F030FC02E00120434908601E
:1046200005203149088001F087FE00B22E494880FC
:104630002E48006800B288802D48006800B2C8800B
:104640002C48006800B208815CE1062026490880F9
:1046500001F072FE00B2244948802448006800B28C
:1046600088803148006800B2C8802948006800B2DC
:10467000088147E11D4800683C2802DA00201B49F8
:10468000086007201849088001F056FE00B216495C
:1046900048801648006800B288801548006800B25B
:1046A000C8801448006800B208812BE102F0A4FB26
:1046B000401C062856D2DFE800F0030A3D43494F6C
:1046C0004FF0FF3008490881194908604AE0054861
:1046D0004088054908810348B0F902001449086080
:1046E00040E00000BC070020B00700205C01002073
:1046F0008C010020AC010020A0010020A4010020BA
:1047000024010020180200204C0200204802002052
:10471000B00100202C7D002010020020D4010020D8
:1047200010000020CC010020340100203C020020B9
:104730002C01002001207B4908817B49086011E0A1
:10474000022078490881784908600BE00320754908
:1047500008817549086005E00420724908817249A2
:10476000086000BF00BF08206E49088001F0E4FD2A
:1047700000B26C4948806D48006800B288806C487F
:10478000006800B2C88002F033FEFFF7CDFBB9E04D
:1047900009206449088001F0CFFD00B261494880DA
:1047A0006248006800B288806148006800B2C88032
:1047B00002F022FB00B25B490881A3E00A205949BC
:1047C000088001204880888040F2A510C8805948A0
:1047D000008800B2088195E05749B1F9020001F064
:1047E00095FBB8B95448B0F9040054490968C96840
:1047F000884221DB5048B0F9040050490968096932
:10480000884219DC4C48B0F904004C490968096831
:10481000086011E00B204349088001F08DFD00B2D3
:10482000404948804148006800B288804FF0FF301E
:10483000C8800020088165E00B203A49088001F01B
:104840007BFD00B2374948803848006800B2888054
:104850003A480068406800B2C8803848006800687C
:10486000006800B208813648806B30B13448806BF4
:1048700000EB80004000334908603148806C3249C9
:1048800051F82000314908600120FEF70BFE39E0A5
:104890000C202449088001F04FFD00B221494880D6
:1048A0002248006800B288802148006800B2C880B1
:1048B0002748006800B208811F484088282801D195
:1048C000244908801EE01E48806B30B11C48806B74
:1048D00000EB800040001B4908602020114908803F
:1048E00001F02AFD00B20F4948801048006800B26C
:1048F00088800F48006800B2C8801548006800B280
:10490000088100BF00BF0748008881B2124803F049
:10491000BFFC0A210348FDF711FE00B2014948819E
:10492000BDE8F081B00700202C0100205C010020D0
:104930008C010020EE9D0008BC07002080020020B2
:104940002C7D002070010020F89D0008F800002058
:10495000AC01002060010020003001402DE9F04F43
:1049600046F6404900FB09F54FF47A5901FB09F975
:10497000C9F10006324606EB050909EBD97A4FEA80
:104980006A03A6EB050909EBD97A4FEA6A04002B02
:1049900006DA002C00DA2FE0002A00DC07E050E005
:1049A000002C00DB28E0002A00DC4AE000BF02F512
:1049B0007A5BABEB040A0AEBDA7B4FEA6B094FEA4E
:1049C000E97B09EBDB3B4FEA6B4B0BF5FA6B1FFA0C
:1049D0008BF7A1464FEAE47A04EBDA3A07EB6A4A2E
:1049E0001FFA8AFC91464FEAE27A02EBDA3AACEB24
:1049F0006A4A1FFA8AF849E003F57A5BABEB040ACE
:104A00000AEBDA7B4FEA6B094FEAE97B09EBDB3B08
:104A10004FEA6B4B0BF5FA6B1FFA8BF7A1464FEA87
:104A2000E47A04EBDA3A07EB6A4A1FFA8AFC994601
:104A30004FEAE37A03EBDA3AA7EB6A4A1FFA8AF8FD
:104A400024E0C2F57A5B0BEB030A0AEBDA7B4FEA50
:104A50006B094FEAE97B09EBDB3B4FEA6B4B0BF54C
:104A6000FA6B1FFA8BF799464FEAE37A03EBDA3ACF
:104A7000A7EB6A4A1FFA8AF891464FEAE27A02EBFC
:104A8000DA3A08EB6A4A1FFA8AFC00BFDFF8109096
:104A9000A9F8347CA9F838CCA9F83C8CBDE8F08F93
:104AA0000020014000BFFEE7704710B54FF40051F1
:104AB000880300F059F84FF4A06000F04BF810BDE7
:104AC00002490148086070470100FA050CED00E05A
:104AD00002490148086070470400FA050CED00E047
:104AE000F0B50F23C27801784FF0E024012742B3DC
:104AF000D4F80C2D467802F4E062C2F5E062120AA6
:104B0000C2F10405D3408278AE401A403243150109
:104B10008A07D20E954021F003010B19D3F80064E7
:104B2000FF2191408E430D402E43C3F8006400786E
:104B3000410900F01F0004EB81018740C1F80071BA
:104B4000F0BD01F01F008740480904EB8000C0F869
:104B50008071F0BD024908430249086070470000B7
:104B60000000FA050CED00E0024A11400143024842
:104B70000160704780FFFF1F08ED00E070B54FF047
:104B8000E026D6F80C3DFF2403F4E063C3F5E063B0
:104B90001B0ADC40C3F10405A94022400A4311016D
:104BA00000F0C0029209C0F30120C0008140FF2341
:104BB000834006EB820000F6185002689A430260B8
:104BC00002680A43026070BD10B52949886D04F07F
:104BD00065FD2849086028480068401E0968401A99
:104BE0002449086024490968481E00EBD071214A15
:104BF000126802EB6101204A1268521E91FBF2F327
:104C000002FB13111D4A11601A4800680C2802DAD1
:104C10000C2018490860184800680C3815490968C4
:104C2000884204DA144800680C38124908601348B6
:104C300000680C2802DA0C20104908600E48006851
:104C40000C380E490968884204DA0B4800680C38B1
:104C50000A4908600648C06B48B9064800684042E7
:104C6000044908600548006840420449086010BDD6
:104C70002C7D002060020020B00100206402002092
:104C800010B52949C86D04F009FD28490860284875
:104C90000068401E0968401A2449086024490968D0
:104CA000481E00EBD071214A126802EB6101204AD4
:104CB0001268521E91FBF2F302FB13111D4A1160A0
:104CC0001A4800680C2802DA0C20184908601848B5
:104CD00000680C3815490968884204DA14480068ED
:104CE0000C3812490860134800680C2802DA0C20BE
:104CF000104908600E4800680C380E49096888425F
:104D000004DA0B4800680C380A4908600648C06B92
:104D100048B90648006840420449086005480068F0
:104D200040420449086010BD2C7D00206C02002028
:104D3000B00100207002002010B5002208210C48AC
:104D400003F0F1FF0122D1020A48FEF74DFA0120DB
:104D500009490860FFF738FF0848006881B2044835
:104D600004F0D8F801220821014803F0DCFF10BD4F
:104D7000000400400008014068020020600200209A
:104D800010B5002210210C4803F0CDFF01221103C1
:104D90000A48FEF729FA012009490860FFF770FF69
:104DA0000848006881B2044804F0B6F801221021D6
:104DB000014803F0B8FF10BD0004004000080140A6
:104DC000740200206C0200202DE9F04393B000240F
:104DD000002500260027F9480068022808D1F84875
:104DE000006828B9F748806B10B1DE20F6490860EA
:104DF000F6480068012806D1F548006818B904F0A3
:104E0000DBF803F07DFCF148006802280CD1F04883
:104E1000006848B904F0D0F803F072FCDF20EA49DA
:104E20000860302003F05AFC04F0D8F8002800F0A5
:104E3000BA87E249083901F10C0212688818012189
:104E400004F06EF9DD48083800780B2875D00FDCC7
:104E50000B2880F09787DFE810F02C009700D50032
:104E60004501D501770213036903F3036E04DE04E1
:104E700013287ED00CDCA0F10C000728E9D2DFE873
:104E800010F00005C904810781071B056505B00501
:104E9000702800F0998605DC14286BD0202840F09B
:104EA0007187F5E3712800F0D4867228F7D100F0FD
:104EB0000EBFC248006820B101282BD0022860D163
:104EC00027E0BE48001D006801280DDABB48001D20
:104ED0000068401CB949091D08600120BB490860F1
:104EE0000A20BB49086013E00020B449091D08608E
:104EF00003F006FCB1480838407838B90120AF49C2
:104F00000860B448007803F0E9FB01E004F054F8CD
:104F100037E000BFA948001D006801280EDAA74845
:104F2000001D0068401CA549091D08600120A74913
:104F300008600A20A649086022E0F1E300209F49AA
:104F4000091D086003F0DCFB9C4808384078A8B9CC
:104F500002209A4908600839087803F0BFFB01F085
:104F6000AFFA99480068DF280AD100209649086006
:104F700001E0F9E3F9E39849086001E004F01CF866
:104F800000BF00BF00F00EBF8C480068022805D0AB
:104F900004F012F8002089490860F3E78748001DF3
:104FA0000068012809DA8548001D0068401C834913
:104FB000091D086003F098FB23E000207F49091DCC
:104FC000086003F09DFB8048006828B1FEF71CF9DB
:104FD000804603F083FBD5E77848083840780128FD
:104FE0000AD1002002F06AFE74490839087803F0FB
:104FF00075FB01F065FA04E003F0DEFF332003F0F7
:105000006DFBBFE76D480068022805D003F0D4FFB0
:1050100000206A490860B5E76848001D006802285A
:1050200009DA6648001D0068401C6449091D0860D3
:1050300003F05AFB55E000206049091D086003F0A9
:105040005FFB6148006828B1FEF7DEF8804603F098
:1050500045FB97E7022159480838FEF7CAF8574937
:1050600008398978884237D154490839487804F09A
:1050700015FB5A4908605A48006818B1002002F030
:105080001DFE21E057480068012816D14D48C06B2D
:105090005549086051480068544908604F48016804
:1050A0005348006801F0C2FC8046002102F01CFF5A
:1050B0004449486B02F002FE06E001204D490860B9
:1050C0004049486B02F0FAFD3C490839087803F082
:1050D00005FB01F0F5F904E003F06EFF332003F067
:1050E000FDFA4FE735480068022805D003F064FF59
:1050F00000203249086045E73048001D006802285A
:1051000009DA2E48001D0068401C2C49091D086062
:1051100003F0EAFA75E000202849091D086003F051
:10512000EFFA2948006828B1FEF76EF8804603F0D0
:10513000D5FA27E7022121480838FEF75AF81F4917
:1051400008398978884257D11C490839487804F0D1
:10515000A5FA224908602248006818B1002002F030
:10516000ADFD23E01F480068012817D11548C06B2A
:105170001D490860194800681C4908601C480168FE
:105180001648006801F052FC8046002102F0ACFE97
:105190000C49496B484202F091FD07E00120154996
:1051A00008600849496B484202F088FD0349083904
:1051B000087803F093FA01F083F922E094020020CA
:1051C000700100202C7D00205C0100205402002092
:1051D00074010020EC9D0008400200202401002002
:1051E000180200204C02002010020020D4010020F0
:1051F000AC0100205002002003F0DEFE332003F05B
:105200006DFABFE6FA480068022805D003F0D4FE24
:105210000020F7490860B5E6F548001D006802283F
:1052200009DAF348001D0068401CF149091D0860B7
:1052300003F05AFA87E00020ED49091D086003F0E9
:105240005FFAEC48006828B1FDF7DEFF804603F006
:1052500045FA97E60221E6480838FDF7CAFFE44917
:1052600008398978884269D1E1490839487804F0D9
:1052700015FAE1490860E148006818B1002002F021
:105280001DFD53E0DE48D0F800800246D2F80090C1
:105290004FEAE97209EB9272D74B1B6803EBA2004D
:1052A0004FEAE87208EB9272911002F007FF38B1F2
:1052B000D448C06B012801D1012708E0002706E08F
:1052C000D048C06B012801D1002700E00127BFB101
:1052D000CC48C06BCC490860C7480068CB4908601F
:1052E000CB480168C448006801F0A0FB804600215B
:1052F00002F0FAFDC349496B484202F0DFFC15E0B9
:10530000C048C06BC0490860BB480068BF4908601E
:10531000B9480168BE48006801F088FB804600215A
:1053200002F0E2FDB749486B02F0C8FCB049083909
:10533000087803F0D3F901F0C3F804E003F03CFE71
:10534000332003F0CBF91DE6A9480068022805D0F8
:1053500003F032FE0020A649086013E6A448001DB1
:105360000068012809DAA248001D0068401CA04915
:10537000091D086003F0B8F981E000209C49091D6F
:10538000086003F0BDF99B48006828B1FDF73CFFB9
:10539000804603F0A3F9F5E59548083840780528DC
:1053A00068D10020944908609A48006801284FD1CC
:1053B0009248006818B1002002F080FC52E090484A
:1053C000D0F800800246D2F800904FEAE97209EB6B
:1053D0009272894B1B6803EBA2004FEAE87208EB5C
:1053E0009272911002F06AFE08B9012700E00027CE
:1053F000BFB18448C06B844908607F480068834916
:105400000860834801687C48006801F00FFB804613
:10541000002102F069FD7B49496B484202F04EFCD5
:1054200020E07848C06B7849086073480068774985
:105430000860714801687648006801F0F7FA804614
:10544000002102F051FD6F49486B02F037FC09E082
:105450006A48006818B1002002F030FC02E0012028
:105460006D49086062490839087803F037F901F09E
:1054700027F804E003F0A0FD332003F02FF981E5C5
:105480005B480068022805D003F096FD00205849CB
:10549000086077E55648001D0068012809DA54487D
:1054A000001D0068401C5249091D086003F01CF9EA
:1054B0003BE000204E49091D086003F021F94D48EA
:1054C000006828B1FDF7A0FE804603F007F959E512
:1054D000474808384078062822D14E4800680128FD
:1054E00018D14348083800788DF80C004848006807
:1054F000FEF7D6FEC0B28DF80D00022103A8FDF71D
:1055000078FE8DF80E00032103A803F06DFE00F075
:10551000D7FF0AE03E2003F0E1F800F0D1FF04E0FD
:1055200003F04AFD332003F0D9F82BE5304800683A
:10553000022805D003F040FD00202D49086021E538
:105540002B48001D0068022809DA2948001D006860
:10555000401C2749091D086003F0C6F86FE00020D1
:105560002349091D086003F0CBF8022120480838C0
:10557000FDF73FFE1E490839897888425AD11C48F8
:105580000838407820B1012812D0022846D11FE007
:105590001748083800788DF80C00FDF76FFE8DF87D
:1055A0000D00022103A8FDF724FE8DF80E0039E05E
:1055B0000F48083800788DF80C00FDF797FE8DF83D
:1055C0000D00022103A8FDF714FE8DF80E0029E05E
:1055D0000748083800788DF80C00FDF715FE8DF8A7
:1055E0000D00022103A8FDF704FE8DF80E0019E05E
:1055F000940200205C0100202401002018020020F9
:10560000B00100202C7D002010020020D4010020D9
:10561000AC0100204C02002048020020342003F09E
:105620005DF800BF00BF032103A803F0DDFD00F01B
:1056300047FF04E003F0C0FC332003F04FF8B1E370
:10564000FC480068022805D003F0B6FC0020F949A8
:105650000860A7E3F748001D0068022809DAF5484A
:10566000001D0068401CF349091D086003F03CF868
:1056700060E00020EF49091D086003F041F8EE48A2
:10568000006830B1FDF7C0FD804603F027F889E3DC
:1056900017E20221E7480838FDF7ABFDE549083974
:1056A0008978884241D1E34808384078292838DA97
:1056B000E04808384078E14951F82050E0488542F8
:1056C00014D1DC48083800788DF80C0000208DF8E3
:1056D0000D00022103A8FDF78CFD8DF80E000321BB
:1056E00003A803F081FD00F0EBFE23E0D148083869
:1056F00000788DF80C0028680068A96890FBF1F02C
:10570000C0B28DF80D00022103A8FDF772FD8DF8DF
:105710000E00032103A803F067FD00F0D1FE09E0AD
:1057200094E0362002F0DAFF04E003F045FC332079
:1057300002F0D4FF36E3BF480068022805D003F02A
:105740003BFC0020BB4908602CE3BA48001D006800
:1057500003280BDAB748001D0068401CB549091D35
:10576000086002F0C1FF54E08FE1E5E10020B1499B
:10577000091D086002F0C4FFAF48006828B1FDF7BA
:1057800043FD804602F0AAFF0CE30321A948083834
:10579000FDF72FFDA7490839C978884234D1A548BB
:1057A0000838407829282BDAA24808384078A349DD
:1057B00051F82050A248854205D19E490839087801
:1057C00002F08CFF25E09B4808388078A96800FB30
:1057D00001F6E868B04202DC2869B04203DA3720FB
:1057E00002F07CFF15E028680660924908390878C5
:1057F00002F074FF00F064FE686800F02FFD08E01E
:10580000362002F06BFF04E003F0D6FB332002F0F9
:1058100065FFC7E200BF87480068022805D003F093
:10582000CBFB002083490860BCE28348006828B1B4
:10583000FDF7EAFC804602F051FFB3E27D490839EA
:10584000087802F04BFF00F03BFEABE279480068BD
:10585000022805D003F0B0FB002076490860A1E2E1
:105860007548006828B1FDF7CFFC804602F036FF8E
:1058700098E270490839087802F030FF00F020FE05
:1058800090E26C480068022805D003F095FB0020E8
:105890006849086086E26848006828B1FDF7B4FCF2
:1058A000804602F01BFF7DE262490839087802F069
:1058B00015FF00F005FE75E25E480068022805D07D
:1058C00003F07AFB00205B4908606BE25948001D39
:1058D0000068032809DA5748001D0068401C554934
:1058E000091D086002F000FF2FE000205149091D4A
:1058F000086002F005FF5048006828B1FDF784FCFD
:10590000804602F0EBFE4DE203214A480838FDF7DD
:1059100070FC48490839C978884213D1454808388D
:10592000407844490839897800EB012084B220B2DC
:1059300002F0C4F93F490839087802F0CFFE00F0C0
:10594000BFFD02E0332002F0C9FE2BE239480068B7
:10595000022805D003F030FB00203649086021E220
:105960003448001D0068032809DA3248001D006829
:10597000401C3049091D086002F0B6FE30E00020EE
:105980002C49091D086002F0BBFE2B48006828B1B5
:10599000FDF73AFC804602F0A1FE03E20321254810
:1059A0000838FDF726FC23490839C978884214D104
:1059B0002048083840781F490839897800EB0120D1
:1059C00084B220B2404202F079F91A4908390878C5
:1059D00002F084FE00F074FD02E0332002F07EFE4F
:1059E000E0E114480068022805D003F0E5FA002041
:1059F00010490860D6E10F48001D0068012809DA47
:105A00000C48001D0068401C0A49091D086002F08E
:105A10006BFE39E000200749091D086002F070FEA6
:105A20000548006870B1FDF7EFFB804602F056FEB6
:105A3000B8E10000940200205C010020E0A2000810
:105A4000C8A20008D9484078122818D18DF80C0057
:105A5000D7480068C0B28DF80D00D5480068000A2C
:105A60008DF80E00032103A8FDF7C3FB8DF80F008E
:105A7000042103A803F0B8FB00F022FD04E003F0CA
:105A80009BFA332002F02AFE8CE1C84808300068F7
:105A9000022806D003F090FA0020C44908310860BB
:105AA00080E1C448006828B1FDF7AEFB804602F0F3
:105AB00015FE77E1BD49087802F010FE00F000FD08
:105AC00070E1BA4808300068022806D003F074FA82
:105AD0000020B6490831086064E1B4480C30006821
:105AE000012809DAB1480C300068401CAF490C317C
:105AF000086002F0F9FD1EE00020AC490C3108609E
:105B000002F0FEFDAB48006828B1FDF77DFB804642
:105B100002F0E4FD46E1A5484078202806D1A349DB
:105B2000087802F0DBFD00F0CBFC04E003F044FA5F
:105B3000332002F0D3FD35E19C480830006802288C
:105B400006D003F039FA002098490831086029E1AD
:105B500096480C300068012809DA94480C30006837
:105B6000401C92490C31086002F0BEFD2BE0002081
:105B70008E490C31086002F0C3FD8E48006828B1E0
:105B8000FDF742FB804602F0A9FD0BE18748407813
:105B9000142813D18DF80C0087490DF10D0003F086
:105BA000A7FD092103A8FDF724FB8DF815000A21A4
:105BB00003A803F019FB00F083FC04E003F0FCF9F8
:105BC000332002F08BFDEDE07848083000680228B1
:105BD00006D003F0F1F90020744908310860E1E0D3
:105BE00072480C300068012809DA70480C300068EF
:105BF000401C6E490C31086002F076FD28E0002060
:105C00006A490C31086002F07BFD6A48006828B1DF
:105C1000FDF7FAFA804602F061FDC3E06348407880
:105C2000702810D16548036865480093036865488B
:105C3000026865A103A803F05BFD03A803F098FACE
:105C400000F03EFC04E003F0B7F9332002F046FD1B
:105C5000A8E0564808300068022806D003F0ACF9E6
:105C600000205249083108609CE050480C30006820
:105C7000012809DA4D480C300068401C4B490C31B2
:105C8000086002F031FD21E0002048490C31086035
:105C900002F036FD4748006828B1FDF7B5FA8046A6
:105CA00002F01CFD7EE041484078712809D10020B7
:105CB000494908603D49087802F010FD00F000FCF9
:105CC00004E003F079F9332002F008FD6AE0374878
:105CD00008300068022806D003F06EF9002033492E
:105CE000083108605EE031480C300068012809DAAC
:105CF0002E480C300068401C2C490C31086002F022
:105D0000F3FC3EE0002029490C31086002F0F8FC69
:105D10002848006828B1FDF777FA804602F0DEFCDB
:105D200040E022484078722826D100261FE02B4808
:105D300030F916302A4830F916202A4830F9161062
:105D400029488DE80E0030F91630284830F9162021
:105D500027A103A803F0CCFC03A803F009FA00BFB5
:105D600027480068274909688842F9D1761C1A48F3
:105D700000688642DBDB04E003F01EF9332002F00A
:105D8000ADFC0FE0094808300068022806D003F097
:105D900013F9002005490831086003E0312002F0C2
:105DA0009DFC00BF00BF13B0BDE8F0838C02002053
:105DB0008C0100205C010020F09D00082C010020D7
:105DC000AC010020840100202564202720256420C8
:105DD0002720256400000000FC000020AC650020A6
:105DE0003C4E0020CC3600205C1F0020EC07002039
:105DF00025642C25642C25642C25642C25640A003C
:105E0000480000204C00002070B50446551AA668D2
:105E1000206805FB06002060114E2068B04202DDBC
:105E20003046206006E00E4E76422068B04201DA2D
:105E300030462060D4E9000605FB060042F21076E9
:105E400090FBF6F3B3F57A7F02DD4FF47A7070BD04
:105E500013F57A7F01DA0348F9E71846F7E70000FF
:105E60008096980018FCFFFFF0B50346B1F57A7FE5
:105E700007DD42F2107090FBF1F01F4F37F8106011
:105E80000BE0642907DD4FF47A7090FBF1F01B4FB3
:105E900037F8106001E041F28836501A70434FF431
:105EA0007A7790FBF7F49F68186804FB0700186086
:105EB000134F1868B84202DD3846186006E0104FEC
:105EC0007F421868B84201DA38461860D3E9000703
:105ED00004FB070042F2107790FBF7F5B5F57A7FE7
:105EE00002DD4FF47A70F0BD15F57A7F01DA0548CE
:105EF000F9E72846F7E700008E9D0008789D000826
:105F00008096980018FCFFFF7047000001460B4880
:105F10000B4A106000BF0A4800684068884201D1FF
:105F2000002070470648026800681830044B18606B
:105F300004488242EFD14FF0FF30F2E7609E000844
:105F400080020020C8A20008704700000A48C089EB
:105F5000152806D0162803D0282804D10120704720
:105F600000BF0220FBE70448C07A042801D1401F8B
:105F7000F5E70020F3E700001C7D0020034A51688C
:105F800021F440410143516070470000001002407D
:105F9000044A0029516901D0014300E08143516165
:105FA0007047000000100240044A0029D16901D066
:105FB000014300E08143D1617047000000100240BE
:105FC000044A0029116901D0014300E081431161B5
:105FD0007047000000100240044A0029916901D076
:105FE000014300E0814391617047000000100240CE
:105FF000044A0029D16801D0014300E08143D16007
:10600000704700000010024010B500F02FF84FF468
:10601000803000F0BDF800F005F90446012C24D1D1
:10602000002000F0ABF8002000F0D8F8A00200F04B
:10603000CBF80220FCF71AFF1020FCF7E9FE4FF422
:10604000E011200400F0DAF8012000F0D1F800BFE0
:10605000392000F073F80028FAD0022000F0D8F8B8
:1060600000BF00F083F80828FBD110BD0B48016881
:1060700041F0010101604168094A11404160016835
:10608000084A11400160016821F4802101604268E2
:10609000002122F4FE02426081607047001002403D
:1060A0000000FFF8FFFFF6FE30B5204A5168204B94
:1060B00011F00C0103D0042901D0082901D003609C
:1060C00011E05168022401F4701104EB914154680D
:1060D000184D14F4803F02D05468A40301D56943DD
:1060E00000E0594301605168134B01F0F0010909C8
:1060F0005C5C0168E1404160546804F4E064240A97
:106100001C5D21FA04F48460546804F46054E40AC9
:106110001B5DD940C1605268074B02F44042920BAC
:106120001B1F9A5CB1FBF2F1016130BD001002400F
:1061300000127A0000093D0050AC00080346002020
:106140005909094A012901D1116804E0022901D144
:10615000116A00E0516A03F01F02012393400B42D1
:1061600000D0012070470000001002400248406843
:1061700000F00C007047000000100240034A516814
:1061800021F0F0010143516070470000001002400F
:106190000B490A6822F480320A600A68B0F5803F31
:1061A00022F480220A6007D0B0F5802F03D108685E
:1061B00040F4A02008607047086840F48030F9E798
:1061C0000010024070470000034A516821F4E0616A
:1061D000014351607047000000100240034A5168BB
:1061E00021F4605141EAC000506070470010024045
:1061F000014908667047000000004242034B5A689C
:10620000084322F47C12104358607047001002408B
:10621000034A516821F003010143516070470000B7
:106220000010024030B50B4C40F2FF153120FFF753
:1062300085FF20706068401C6060207810B960683D
:10624000A842F3D13120FFF779FF002800D00120C8
:1062500030BD0000D00200207047704710B50446E2
:10626000102C46D006DC012C3ED0022C3DD00D2C4B
:106270004DD104E0642C44D0652C48D144E0002288
:106280000821244802F04FFD0122D1022248FCF7E8
:10629000ABFF012021490860FEF796FC204800680A
:1062A00081B21C4802F036FE01220821194802F092
:1062B0003AFD00221021174802F035FD012211039A
:1062C0001548FCF791FF012016490860FEF7D8FC3D
:1062D0001548006881B20F4802F01EFE012210210D
:1062E0000C4802F020FD12E000BF0120FDF7DAF8B3
:1062F0000DE00E48806C0E4951F820000D490860F1
:1063000005E0FEF719FD02E0FEF73AFD00BF00BF11
:1063100010BD000000040040000801406802002099
:1063200060020020740200206C0200202C7D0020FE
:10633000F89D0008F80000203948006808B10120E5
:1063400000E000203749098860F3000135480180EA
:106350003548006808B1012000E000203149098873
:1063600060F341012F48018030480068072801D1BF
:10637000012000E000202B49098860F382012948B0
:1063800001802B48006808B1012000E00020254969
:10639000098860F3C3012348018024480068082865
:1063A00001D1012000E000201E49098860F304119A
:1063B0001C4801801F48006808B1012000E000204F
:1063C0001849098860F34511164801801A48006889
:1063D0003C2801DD012000E000201249098860F31B
:1063E0008E311048018015480068154909688842B7
:1063F0000BD001210B48008861F34D30094908801A
:106400000F4800680D49086006E000210548008833
:1064100061F34D300349088002480088704700004E
:1064200018020020780200203002002064000020C2
:1064300014020020D80100205C0100200C00002084
:106440000C01002010B54160026083600024C4602C
:10645000046110BDF0B50346551A1F68D86805FBE6
:106460000700D860144FD868B84202DD3846D860BB
:1064700006E0114F7F42D868B84201DA3846D8604A
:106480001869281A9F6800FB07F41D615F68D868C7
:1064900005FB0700204442F2107790FBF7F6B6F5B3
:1064A0007A7F02DD4FF47A70F0BD16F57A7F01DA5B
:1064B0000248F9E73046F7E78096980018FCFFFF9E
:1064C0000348806B00EB8000400002490860704781
:1064D0002C7D00207001002000B593B01822C8491F
:1064E0000DA8FBF760FE1822C549183107A8FBF775
:1064F0005AFE1822C249303101A8FBF754FEC148A8
:10650000006830B1012836D002287DD0032831D16F
:10651000AEE00120BC4908607F21BC4803F0B4F81C
:1065200001F0CCFC0121BA4802F011FB0121B8486E
:1065300002F018FB3220B74908600020B649086015
:106540000120B04908604FF4E160B249091F0860BA
:106550004FF4E040B1490880B1480068022802D0F9
:10656000042806D100E000BF4FF42040AB4908806A
:1065700000BF00BF40E1A7480068002854D10DA823
:10658000A549096850F82100A249091F0968484334
:10659000642190FBF1F000F5FA60A249086007A8B9
:1065A0009D49096850F821009A49091F0968484324
:1065B000642190FBF1F000F5FA609B49086001A8A6
:1065C0009549096850F821009249091F0968484314
:1065D000642190FBF1F000F5FA609449086091485D
:1065E000006893490880904800689249A1F8380CE7
:1065F0008E480068904908804FF00101844802F0FD
:10660000A6FA0121824800E014E002F0ABFA002073
:106610008A49A1F82404012180482C3802F097FA15
:1066200002207849086004E07A480068401E7949F1
:106630000860E1E082480068012818D10020804904
:10664000086002207349086073480068052808DA6A
:1066500071480068401C7049086001206949086061
:1066600005E000206C490860032066490860C3E02B
:1066700074480068FF2807DD72488068FF2803DD42
:1066800070480069FF280EDC01F018FC00205E490C
:106690000860AF206C49086001206C490860002048
:1066A00058490860A8E0002069490860654800680A
:1066B00064494968884205DA6548006840F001008D
:1066C000634908605F4880685E49C968884205DAA6
:1066D0005F48006840F002005D4908605948006961
:1066E00058494969884205DA5948006840F0040071
:1066F0005749086056480068082844D2DFE800F08F
:106700003B040D162029313F52480068001A5249B7
:10671000096808444E49086035E04E4800684E4913
:10672000096801EB80004A4908602CE0494800688C
:1067300000EB80004849096808444549086022E0A8
:10674000444800684449096801EB4000404908603A
:1067500019E0404800684049096808443C4908601D
:1067600011E03C48006800EB40003B4909680844E0
:106770003749086007E001203549086003E002203E
:106780003349086000BF00BF3148006833490968D9
:1067900008443349096808443049096890FBF1F21C
:1067A00001FB12004FF0804188842E480068B0B190
:1067B0004FF4FA601E4908801E49A1F8380C1E49A2
:1067C00008804FF00101124802F0C1F90121104880
:1067D00002F0C8F92348006801F070FA05E00020D3
:1067E000084908600120194908600020064908602E
:1067F00001201D49086000BF00BF13B000BD0000AC
:10680000A49D00089C0100201C02002000480040BC
:10681000002C0140B4000020E00100202C140040B6
:106820002C010020580000205C00002060000020A7
:10683000342C0140002001403C2C0140001000405D
:1068400024020020180700205C01002064000020C2
:106850007C00002048010020440100203401002079
:1068600020010020B4010020200200200C48006B11
:106870000C490968081A0C490968884207DD08486C
:10688000006B08490968081A0649086006E00648CE
:10689000006804490860002004490860704700004F
:1068A0002C7D002094010020900100201402002083
:1068B0004FF08040808C1B49096808441A490968D8
:1068C000401A1849096890FBF1F201FB12001749C0
:1068D000086017480068F8B116480088B0F5004F06
:1068E00008DD1448008800B21349096808441349B8
:1068F000086003E00F480088104908600F480068EE
:10690000002805DB0D4800680B490968884207DB51
:1069100000200A49086003E004480068074908604D
:106920007047000034010020200100207C0100207D
:106930002C02002024040040B0010020AC01002003
:1069400030B500211B4B1B684EF6602494FBF3F21C
:10695000194B1B68834216DD174B1B68191A174B1E
:106960001B6B91FBF3F3164C23600B4601EBD174C8
:1069700000EB64044C43114D2D6B554394FBF5F42F
:10698000104D2C6015E00C4B1B68C11A0B4B9B6A19
:1069900091FBF3F30A4C23600B4601EBD17400EB3F
:1069A00064044C43054DAD6A554394FBF5F4054D25
:1069B0002C6030BDB00100208C0100202C7D002017
:1069C000BC010020B801002014480068144909687F
:1069D000884207DD1148006811490968401A1149C9
:1069E000086006E00E4800680C490968401A0D4925
:1069F00008600D49086800EBD0710A4A1268B2EBD2
:106A0000610F06DD0848006806490968401A054913
:106A10000860024800680249086070477C01002055
:106A2000CC000020800100203401002002460B48E9
:106A30000068012808D18A4204DD09480068801AEC
:106A400008447047881AFCE78A4201DB501AF8E7CD
:106A500003480068401A1044F3E7000010020020C9
:106A6000B001002000B589B07248006818B97248BA
:106A70000068002830D07148006801282CD1704887
:106A800000686F4949680844C117CDE906016D489F
:106A90000068C1170B460246CDE904016AA003C88D
:106AA000FBF754FBCDE90201DDE90623FBF74EFBC2
:106AB000CDE900016649086008460068002805DB4A
:106AC0006448006864490968884208D00020604929
:106AD00008605A49086002E000205D4908605F488C
:106AE0000068192808DA5A48006840F6B831884228
:106AF00002DD0020564908604E48006818B94E482B
:106B00000068002830D05648006801282CD155482C
:106B10000068544949680844C117CDE9060149484D
:106B20000068C1170B460246CDE9040146A003C820
:106B3000FBF70CFBCDE90201DDE90623FBF706FBC1
:106B4000CDE900014849086008460068002805DBD7
:106B50004048006840490968884208D000204249FE
:106B600008603F49086002E000203F4908603B4858
:106B70000068192808DA3C48006840F6B8318842B5
:106B800002DD00203849086031490968364A126838
:106B9000881800EBD0714910344A116034483549E7
:106BA000096850F821003349091D0968081A31495C
:106BB000091D0860084600681146096808442D4907
:106BC000091D08601046016829482A4A126840F8E1
:106BD000221028480068042805DA26480068401C6E
:106BE0002449086002E00020224908602148001D75
:106BF0000068801C052190FBF1F01F4908601548D2
:106C00000068012804D1084600681C49086004E0B7
:106C1000194800684042194908601448006818493A
:106C2000096848431749096890FBF1F01649086064
:106C300009B000BD1802002028020020FC0100203D
:106C4000EC0100203001002000F87D01010000006F
:106C50007400002010020020980100208001002014
:106C600000020020F40100207800002084010020B0
:106C7000480700209000002088010020E400002048
:106C800034010020B00100208C01002010B5034623
:106C90000B4800680B4C94FBF0F2012900DA01214B
:106CA00002FB03F090FBF1F0074C2468001BA0F1FD
:106CB000C802002A01DA002010BD1046FCE70000DF
:106CC000B0010020C0D401009001002030480068CD
:106CD00030490968884255D02D4800682D49096817
:106CE000884228DD2C49086829490968294A126820
:106CF000891A00EBD072B1EB620F0DDD27480068F6
:106D000000283FD000202549086025490860254912
:106D100008602549086035E020480068012831D026
:106D200001201E49086000201D4908601D490860B7
:106D30001D49086026E01849086816490968144A80
:106D40001268891A00EBD072B1EB620F0EDD1348A6
:106D50000068012816D00120104908600020104961
:106D6000086010490860104908600BE00B48006893
:106D700040B10020094908600949086009490860D4
:106D8000094908600248006802490860704700002D
:106D90007C0100208C00002034010020980100209C
:106DA000FC010020000200200402002030B5034650
:106DB0000C4621461846FFF739FE05460649086885
:106DC00000EBD071B5EB610F03DB03480068281AB4
:106DD00030BD2846FCE70000B00100200020034938
:106DE000086003490860034908607047DC0100201F
:106DF000D8010020440200201848018840F60650BF
:106E0000814201DD00207047B1F5296F01DD0320CB
:106E1000F9E740F6D800814201DD0120F3E740F2B6
:106E2000F560814201DD0620EDE7B1F5B56F01DDCA
:106E30000220E8E740F26540814201DD0420E2E7FC
:106E400040F21630814201DD0020DCE7B1F5997F88
:106E500001DB0020D7E74FF0FF30D4E77A020020B3
:106E600010B52C4801682C480068FFF79FFF2B499C
:106E700008602848006828490860294800680128F7
:106E800047D12848006825490968401A2549086003
:106E90002548006810B101283AD12DE02348006848
:106EA000FFF74EFD224800682249096801EB4000C7
:106EB0001C49096888421EDD1C48006890B91E48BC
:106EC00000681E4908601E48006C1E4908600120C9
:106ED0001B490864002000F0F1FE1A4800681849B8
:106EE000086403E01148006800F0E8FE012016493C
:106EF00008600D4908600BE00A4800681E2806DAA1
:106F0000002009490860064908600F49086000BF71
:106F100000BF10BDAC0100208000002084000020D4
:106F2000D8010020CC010020DC010020D00100208D
:106F300028010020B8010020D401002024010020F5
:106F40002C7D0020880000204402002030B5FE483F
:106F5000006800287ED0FD480068052845D2DFE89B
:106F600000F00397DB45F8000020F849091F08608E
:106F7000F7480068F7490968884236D00A20F34983
:106F800008390860F348006880B9F34800680128B0
:106F90002BD1032008310860F048006BEF49096DE0
:106FA00048434042E9490C3908601EE0EC4800685B
:106FB00003280AD10120E5490860E848806AE749CA
:106FC000C96C4843E1490C390860E5480068042869
:106FD0000BD10220DD490860E048006BDF49096DF4
:106FE00048434042D9490C390860E4E0DB48406B33
:106FF000DA49096B01EB41010844DA490968884222
:1070000003DCD548006800283DD1D048001F006847
:1070100058BB0120CD49091F0860002008390860CD
:10702000002409E0D04951F8240000EBD071491048
:10703000CD4A42F82410641CC848C06FA042F1DC5D
:10704000C2491039086800EBD0714910BF4A103AA4
:10705000116000E0BDE00020111F0860C34908680E
:1070600000EBD0714910C14A1160BD480068032887
:1070700003D0BB480068042809D10020B349086048
:107080000C39086003E00020B049091F086092E055
:10709000B3480068032805D00020AC4908600C39CB
:1070A000086088E0AD48806A00EB4000A9490968A3
:1070B000081AAF490968884229DC0420A3490860FE
:1070C00000200C390860002409E0A74951F8240089
:1070D00000EBD0714910A44A42F82410641C9F4868
:1070E000C06FA042F1DC99491039086800EBD071FB
:1070F0004910964A103A11600020111F08609B4900
:10710000086800EBD0714910984A116053E00020E4
:107110008E49091F08604EE091480068042805D098
:1071200000208A4908600C39086044E08B48006BF5
:1071300000EB40008749096808448D490968884286
:107140002ADB04208149086000200C3908600024F3
:107150000AE026E0844951F8240000EBD071491080
:10716000814A42F82410641C7C48C06FA042F1DCC4
:1071700076491039086800EBD0714910734A103A0B
:1071800011600020111F08607849086800EBD07179
:107190004910764A11600EE000206C49091F086012
:1071A00009E06B4800686B490968884202D10020F9
:1071B0006649086000BF00BF6448083800680128BD
:1071C00034DD624808380068401E604908390860AC
:1071D0002CE000205D490860644908600A205B4992
:1071E000083908605D48806A5C49C96C4843574962
:1071F0000C390860002406E054480C3800685A49ED
:1072000041F82400641C5548C06FA042F4DC534888
:10721000C06F4E490C39096848434C491039086021
:107220000020091F08600831086030BD4848026826
:107230004F4801684D48FEF717FE054643480C3895
:10724000006842490839096890FBF1F00544B5F53A
:107250007A7F01DD4FF47A7515F57A7F00DA454DB6
:1072600041483A491439096850F821003749103922
:107270000968081A3549103908600846006828442A
:1072800008603948091F096840F821503348C06F29
:10729000401E2E4914390968884207DD2B481438EE
:1072A0000068401C29491439086003E00020274980
:1072B000143908602949C86F00EBD071234A103A8D
:1072C000126802EB6101254AD26F91FBF2F52A4860
:1072D0000068012802D12948056002E06842274978
:1072E00008602748006840F6B83188422ADA184812
:1072F000006800B22349224A126821F812001C4893
:10730000006801B220481E4A126820F812101F4877
:10731000006801B21E481A4A126820F81210174875
:10732000006800B21B49164A126821F812000021B9
:107330001948134A126820F8121011480068401CBE
:107340000F49086071E7000018020020AC0000201F
:107350009401002090010020700000202C7D00206E
:10736000640000208C0100205C07002098070020AA
:107370008401002018FCFFFF10020020E000002024
:10738000FC000020EC0700205C1F0020AC01002066
:10739000CC3600203C4E0020AC65002010B51348D0
:1073A000006809281FD2DFE800F00805090C0F1259
:1073B00015181B0000F0CAF916E015E0FFF78CF86D
:1073C00012E000F059FE0FE0FFF750FA0CE000F079
:1073D000DDF909E000F048FA06E000F0C1F803E04A
:1073E00000F098FB00E000BF00BF10BD640000206B
:1073F0004B480068072829D2DFE800F028101C114C
:107400001D04050000BF4FF40070464908600220CB
:107410004549086086204549086022E000BF4FF4D6
:1074200080704049086002203F49086043203F497E
:10743000086016E000BF4FF480703A4908600220EF
:10744000394908609120394908600AE04FF480709A
:1074500034490860022034490860432033490860F9
:1074600000BF00BF0020324908602E48006880003D
:1074700030490860084600682B49096890FBF1F024
:107480002D4908600868C11700EB917189102B4ADB
:107490001160294800680C2190FBF1F02849086030
:1074A00025480068062190FBF1F026490860224833
:1074B00000684000062190FBF1F0234908601E4857
:1074C000006800EB4000062190FBF1F01F490860C6
:1074D000194800688000062190FBF1F01C49086003
:1074E0001548006800EB8000062190FBF1F0194977
:1074F00008601048006818490860094800680528B5
:1075000002D0062806D100E000BF4FF48B7013496B
:10751000086003E000201149086000BF00BF704709
:107520002C0100203001002038010020E80000205C
:10753000EC000020340100203C010020400100202C
:1075400044010020480100204C010020500100208F
:107550005401002058010020B0010020200100202B
:1075600010B50024002060490860604800680228C7
:1075700003DB00205D49086000E010BD5C48016845
:107580005C480068FAF7F8FF04465B48006820B1E1
:1075900001283BD00A2838D183E0032C08DB574868
:1075A000006828B1564800685649096888420CD0DE
:1075B00000F084FC5448C0695049086000205349D9
:1075C000086001204C4908601FE04F498969504A12
:1075D000126801FB02F0C11700EB916189114D4A5D
:1075E000116010460068FA2802DDFA201146086092
:1075F0004448006820B9474800684749086004E0EB
:10760000444800684042444908606BE00020434918
:10761000086043490860434908603B48C06940B975
:1076200064203649086038484069C82148433E49CB
:1076300048603248006830B314F1020F07DD022CB5
:1076400005DA0020384908603349086028E0002244
:1076500061423548FEF7D8FB2E49086008460068AD
:10766000FA2801DDFA20086026480068012804D1C4
:10767000284800682849086012E02648006840420F
:10768000254908600CE000201B4908601E48406A3C
:1076900018B108202549086002E00120234908604C
:1076A00020E01948C06940B96420144908601648B0
:1076B0004069C82148431C4948601048006818B117
:1076C0006420154908600CE000200B4908600E4852
:1076D000406A18B108201549086002E001201349EA
:1076E000086000BF00BF48E768010020F0000020EC
:1076F000A8010020AC0100209C0100206C010020AA
:1077000098010020100200202C7D0020280200207B
:1077100084010020BC000020E0000020FC010020CB
:107720000002002004020020A407002064000020C2
:107730000020034908600348006803490860704757
:107740002C02002034010020B001002000B50C48BC
:10775000006810B1012810D10EE000F0AFFB00204E
:10776000FBF7A0FE002007490860012004490860DB
:1077700000200549086000E000BF00BF00BD000018
:107780009C01002014020020F400002010B52E48B7
:10779000006830B1012815D002282CD0032851D11F
:1077A0003BE02A48406B2A4909684843294909684F
:1077B00090FBF1F02849086001202349086027491F
:1077C00008603FE02148406B1E3025490968884227
:1077D00010DB1E48406B1E49096848431D49096873
:1077E00090FBF1F01C490860022017490860002056
:1077F0001A49086026E01648006800EB00104FF4B4
:10780000B47190FBF1F421461648006800F056FC74
:1078100010B903200C49086014E00D48006800EB23
:10782000400080004FF4B47190FBF1F421460D4804
:10783000006800F043FC20B100210A48006800F015
:1078400067FB00BF00BF10BD9C0100202C7D002005
:10785000B0010020340100209401002070000020BD
:107860008C0100202401002070B500249748006896
:10787000052845D2DFE800F00345F5F3F2000020CB
:10788000FFF75EF892480068012814D1914800681B
:1078900091490968401A91490968441A02E09048E0
:1078A00000680444002CFADB8D48006894FBF0F17A
:1078B00000FB11440DE087480068874909680844C7
:1078C0008649096808448649096890FBF1F201FB82
:1078D0001204214683480068FFF7A8F8824908602F
:1078E0007D4800687D49096808447F490968084463
:1078F0007D49086001207549086000207B490860C7
:10790000DEE0784801687A480068FFF74FFA764968
:107910000968081A7449086008460068002801DAF6
:10792000002008606C4800686C49096808446E498A
:10793000096888426ADB01206E4908606A4800686D
:1079400066490968884245DD67490968634A1268E3
:10795000881A69490968FFF799F968490860664813
:107960000068401E644908606548406B1E306549E8
:10797000096888420ADA61480068634909688842F0
:107980000FDD614800685D4908600AE05C48406BB3
:107990005349096848435D49096890FBF1F057492C
:1079A00008605748406B4E49096848435749096881
:1079B00090FBF1F051490968884227DD5048406B3F
:1079C0004749096848435149096890FBF1F04B4920
:1079D00008601BE00020474908604D48006870B906
:1079E0004748406B3E49096848434849096890FB4D
:1079F000F1F04249086002203449086006E044483A
:107A000000683E490860042030490860404800682A
:107A1000A8B93B48406B0A383A49096888421CDDDE
:107A20003748406B2E49096848433849096890FB3C
:107A3000F1F0324908600220244908600DE0344822
:107A400000680A3830490968884206DD3048006815
:107A50002A49086004201D49086031E02FE019E040
:107A6000FFE72748406B643026490968884210DBED
:107A70001B48006800EB00104FF4B47190FBF1F567
:107A800029461448006800F019FB10B903200F497B
